{
  "_format": "hh-sol-artifact-1",
  "contractName": "AnonymousVoting",
  "sourceName": "contracts/AnonymousVoting.sol",
  "abi": [
    {
      "inputs": [],
      "stateMutability": "nonpayable",
      "type": "constructor"
    },
    {
      "anonymous": false,
      "inputs": [
        {
          "indexed": false,
          "internalType": "uint256",
          "name": "optionIndex",
          "type": "uint256"
        }
      ],
      "name": "VotedCast",
      "type": "event"
    },
    {
      "anonymous": false,
      "inputs": [],
      "name": "VotingEnded",
      "type": "event"
    },
    {
      "inputs": [],
      "name": "endVoting",
      "outputs": [],
      "stateMutability": "nonpayable",
      "type": "function"
    },
    {
      "inputs": [],
      "name": "getResults",
      "outputs": [
        {
          "internalType": "string[]",
          "name": "",
          "type": "string[]"
        },
        {
          "internalType": "uint256[]",
          "name": "",
          "type": "uint256[]"
        }
      ],
      "stateMutability": "view",
      "type": "function"
    },
    {
      "inputs": [],
      "name": "getVotingType",
      "outputs": [
        {
          "internalType": "string",
          "name": "",
          "type": "string"
        }
      ],
      "stateMutability": "pure",
      "type": "function"
    },
    {
      "inputs": [],
      "name": "isVotingActive",
      "outputs": [
        {
          "internalType": "bool",
          "name": "",
          "type": "bool"
        }
      ],
      "stateMutability": "view",
      "type": "function"
    },
    {
      "inputs": [
        {
          "internalType": "string",
          "name": "_question",
          "type": "string"
        },
        {
          "internalType": "string[]",
          "name": "optionNames",
          "type": "string[]"
        },
        {
          "internalType": "uint256",
          "name": "durationInMinutes",
          "type": "uint256"
        }
      ],
      "name": "newVote",
      "outputs": [],
      "stateMutability": "nonpayable",
      "type": "function"
    },
    {
      "inputs": [],
      "name": "newVoting",
      "outputs": [],
      "stateMutability": "nonpayable",
      "type": "function"
    },
    {
      "inputs": [
        {
          "internalType": "uint256",
          "name": "",
          "type": "uint256"
        }
      ],
      "name": "options",
      "outputs": [
        {
          "internalType": "string",
          "name": "name",
          "type": "string"
        },
        {
          "internalType": "uint256",
          "name": "voteCount",
          "type": "uint256"
        }
      ],
      "stateMutability": "view",
      "type": "function"
    },
    {
      "inputs": [],
      "name": "owner",
      "outputs": [
        {
          "internalType": "address",
          "name": "",
          "type": "address"
        }
      ],
      "stateMutability": "view",
      "type": "function"
    },
    {
      "inputs": [],
      "name": "question",
      "outputs": [
        {
          "internalType": "string",
          "name": "",
          "type": "string"
        }
      ],
      "stateMutability": "view",
      "type": "function"
    },
    {
      "inputs": [
        {
          "internalType": "uint256",
          "name": "optionIndex",
          "type": "uint256"
        }
      ],
      "name": "vote",
      "outputs": [],
      "stateMutability": "payable",
      "type": "function"
    },
    {
      "inputs": [
        {
          "internalType": "uint256",
          "name": "",
          "type": "uint256"
        }
      ],
      "name": "voters",
      "outputs": [
        {
          "internalType": "bytes32",
          "name": "",
          "type": "bytes32"
        }
      ],
      "stateMutability": "view",
      "type": "function"
    },
    {
      "inputs": [],
      "name": "votingEndTime",
      "outputs": [
        {
          "internalType": "uint256",
          "name": "",
          "type": "uint256"
        }
      ],
      "stateMutability": "view",
      "type": "function"
    },
    {
      "inputs": [],
      "name": "withdraw",
      "outputs": [],
      "stateMutability": "nonpayable",
      "type": "function"
    }
  ],
  "bytecode": "0x6080604052348015600f57600080fd5b50336000806101000a81548173ffffffffffffffffffffffffffffffffffffffff021916908373ffffffffffffffffffffffffffffffffffffffff160217905550611f638061005f6000396000f3fe6080604052600436106100c25760003560e01c80634717f97c1161007f5780638da5cb5b116100595780638da5cb5b14610239578063c3403ddf14610264578063d0fc15721461027b578063da58c7d914610292576100c2565b80634717f97c146101b957806347cf6f76146101e5578063843b1c9a14610210576100c2565b80630121b93f146100c75780631ea736e0146100e3578063263b7ead1461010e5780633ccfd60b146101395780633fad9ae014610150578063409e22051461017b575b600080fd5b6100e160048036038101906100dc9190610e7e565b6102cf565b005b3480156100ef57600080fd5b506100f861053d565b6040516101059190610eba565b60405180910390f35b34801561011a57600080fd5b50610123610543565b6040516101309190610f65565b60405180910390f35b34801561014557600080fd5b5061014e610580565b005b34801561015c57600080fd5b506101656106b7565b6040516101729190610f65565b60405180910390f35b34801561018757600080fd5b506101a2600480360381019061019d9190610e7e565b610745565b6040516101b0929190610f87565b60405180910390f35b3480156101c557600080fd5b506101ce6107f7565b6040516101dc929190611181565b60405180910390f35b3480156101f157600080fd5b506101fa6109be565b60405161020791906111d3565b60405180910390f35b34801561021c57600080fd5b5061023760048036038101906102329190611409565b6109d1565b005b34801561024557600080fd5b5061024e610b82565b60405161025b91906114d5565b60405180910390f35b34801561027057600080fd5b50610279610ba6565b005b34801561028757600080fd5b50610290610ccc565b005b34801561029e57600080fd5b506102b960048036038101906102b49190610e7e565b610dd2565b6040516102c69190611509565b60405180910390f35b600d60009054906101000a900460ff1661031e576040517f08c379a000000000000000000000000000000000000000000000000000000000815260040161031590611596565b60405180910390fd5b60058110610361576040517f08c379a000000000000000000000000000000000000000000000000000000000815260040161035890611602565b60405180910390fd5b662386f26fc1000034146103aa576040517f08c379a00000000000000000000000000000000000000000000000000000000081526004016103a19061166e565b60405180910390fd5b600c5442106103ee576040517f08c379a00000000000000000000000000000000000000000000000000000000081526004016103e5906116da565b60405180910390fd5b6000336040516020016104019190611742565b604051602081830303815290604052805190602001209050600e600082815260200190815260200160002060009054906101000a900460ff161561047a576040517f08c379a0000000000000000000000000000000000000000000000000000000008152600401610471906117a9565b60405180910390fd5b6001600283600581106104905761048f6117c9565b5b6002020160010160008282546104a69190611827565b925050819055506001600e600083815260200190815260200160002060006101000a81548160ff021916908315150217905550600f8190806001815401808255809150506001900390600052602060002001600090919091909150557f0764994cec44d59dfec5a64a5b762b51ea62c652c4e63f53da1ba0835e5c8744826040516105319190610eba565b60405180910390a15050565b600c5481565b60606040518060400160405280600981526020017f416e6f6e796d6f75730000000000000000000000000000000000000000000000815250905090565b60008054906101000a900473ffffffffffffffffffffffffffffffffffffffff1673ffffffffffffffffffffffffffffffffffffffff163373ffffffffffffffffffffffffffffffffffffffff161461060e576040517f08c379a0000000000000000000000000000000000000000000000000000000008152600401610605906118cd565b60405180910390fd5b600d60009054906101000a900460ff161561065e576040517f08c379a00000000000000000000000000000000000000000000000000000000081526004016106559061195f565b60405180910390fd5b600047905060008111156106b4573373ffffffffffffffffffffffffffffffffffffffff166108fc829081150290604051600060405180830381858888f193505050501580156106b2573d6000803e3d6000fd5b505b50565b600180546106c4906119ae565b80601f01602080910402602001604051908101604052809291908181526020018280546106f0906119ae565b801561073d5780601f106107125761010080835404028352916020019161073d565b820191906000526020600020905b81548152906001019060200180831161072057829003601f168201915b505050505081565b6002816005811061075557600080fd5b6002020160009150905080600001805461076e906119ae565b80601f016020809104026020016040519081016040528092919081815260200182805461079a906119ae565b80156107e75780601f106107bc576101008083540402835291602001916107e7565b820191906000526020600020905b8154815290600101906020018083116107ca57829003601f168201915b5050505050908060010154905082565b6060806000600567ffffffffffffffff811115610817576108166111f8565b5b60405190808252806020026020018201604052801561084a57816020015b60608152602001906001900390816108355790505b5090506000600567ffffffffffffffff81111561086a576108696111f8565b5b6040519080825280602002602001820160405280156108985781602001602082028036833780820191505090505b50905060005b60058110156109b157600281600581106108bb576108ba6117c9565b5b6002020160000180546108cd906119ae565b80601f01602080910402602001604051908101604052809291908181526020018280546108f9906119ae565b80156109465780601f1061091b57610100808354040283529160200191610946565b820191906000526020600020905b81548152906001019060200180831161092957829003601f168201915b505050505083828151811061095e5761095d6117c9565b5b60200260200101819052506002816005811061097d5761097c6117c9565b5b6002020160010154828281518110610998576109976117c9565b5b602002602001018181525050808060010191505061089e565b5081819350935050509091565b600d60009054906101000a900460ff1681565b60008054906101000a900473ffffffffffffffffffffffffffffffffffffffff1673ffffffffffffffffffffffffffffffffffffffff163373ffffffffffffffffffffffffffffffffffffffff1614610a5f576040517f08c379a0000000000000000000000000000000000000000000000000000000008152600401610a5690611a51565b60405180910390fd5b600d60009054906101000a900460ff1615610aaf576040517f08c379a0000000000000000000000000000000000000000000000000000000008152600401610aa690611abd565b60405180910390fd5b8260019081610abe9190611c89565b50603c81610acc9190611d5b565b42610ad79190611827565b600c8190555060005b8251811015610b61576040518060400160405280848381518110610b0757610b066117c9565b5b60200260200101518152602001600081525060028260058110610b2d57610b2c6117c9565b5b600202016000820151816000019081610b469190611c89565b50602082015181600101559050508080600101915050610ae0565b506001600d60006101000a81548160ff021916908315150217905550505050565b60008054906101000a900473ffffffffffffffffffffffffffffffffffffffff1681565b60008054906101000a900473ffffffffffffffffffffffffffffffffffffffff1673ffffffffffffffffffffffffffffffffffffffff163373ffffffffffffffffffffffffffffffffffffffff1614610c34576040517f08c379a0000000000000000000000000000000000000000000000000000000008152600401610c2b90611e0f565b60405180910390fd5b600d60009054906101000a900460ff16610c83576040517f08c379a0000000000000000000000000000000000000000000000000000000008152600401610c7a90611e7b565b60405180910390fd5b6000600d60006101000a81548160ff0219169083151502179055507f7a19ed057db79e3c2fa0b97a54b43bef4fce74b31bb6c01af514b9a18a7f70ab60405160405180910390a1565b60008054906101000a900473ffffffffffffffffffffffffffffffffffffffff1673ffffffffffffffffffffffffffffffffffffffff163373ffffffffffffffffffffffffffffffffffffffff1614610d5a576040517f08c379a0000000000000000000000000000000000000000000000000000000008152600401610d5190611f0d565b60405180910390fd5b60005b600f80549050811015610dc1576000600e6000600f8481548110610d8457610d836117c9565b5b9060005260206000200154815260200190815260200160002060006101000a81548160ff0219169083151502179055508080600101915050610d5d565b50600f6000610dd09190610df6565b565b600f8181548110610de257600080fd5b906000526020600020016000915090505481565b5080546000825590600052602060002090810190610e149190610e17565b50565b5b80821115610e30576000816000905550600101610e18565b5090565b6000604051905090565b600080fd5b600080fd5b6000819050919050565b610e5b81610e48565b8114610e6657600080fd5b50565b600081359050610e7881610e52565b92915050565b600060208284031215610e9457610e93610e3e565b5b6000610ea284828501610e69565b91505092915050565b610eb481610e48565b82525050565b6000602082019050610ecf6000830184610eab565b92915050565b600081519050919050565b600082825260208201905092915050565b60005b83811015610f0f578082015181840152602081019050610ef4565b60008484015250505050565b6000601f19601f8301169050919050565b6000610f3782610ed5565b610f418185610ee0565b9350610f51818560208601610ef1565b610f5a81610f1b565b840191505092915050565b60006020820190508181036000830152610f7f8184610f2c565b905092915050565b60006040820190508181036000830152610fa18185610f2c565b9050610fb06020830184610eab565b9392505050565b600081519050919050565b600082825260208201905092915050565b6000819050602082019050919050565b600082825260208201905092915050565b6000610fff82610ed5565b6110098185610fe3565b9350611019818560208601610ef1565b61102281610f1b565b840191505092915050565b60006110398383610ff4565b905092915050565b6000602082019050919050565b600061105982610fb7565b6110638185610fc2565b93508360208202850161107585610fd3565b8060005b858110156110b15784840389528151611092858261102d565b945061109d83611041565b925060208a01995050600181019050611079565b50829750879550505050505092915050565b600081519050919050565b600082825260208201905092915050565b6000819050602082019050919050565b6110f881610e48565b82525050565b600061110a83836110ef565b60208301905092915050565b6000602082019050919050565b600061112e826110c3565b61113881856110ce565b9350611143836110df565b8060005b8381101561117457815161115b88826110fe565b975061116683611116565b925050600181019050611147565b5085935050505092915050565b6000604082019050818103600083015261119b818561104e565b905081810360208301526111af8184611123565b90509392505050565b60008115159050919050565b6111cd816111b8565b82525050565b60006020820190506111e860008301846111c4565b92915050565b600080fd5b600080fd5b7f4e487b7100000000000000000000000000000000000000000000000000000000600052604160045260246000fd5b61123082610f1b565b810181811067ffffffffffffffff8211171561124f5761124e6111f8565b5b80604052505050565b6000611262610e34565b905061126e8282611227565b919050565b600067ffffffffffffffff82111561128e5761128d6111f8565b5b61129782610f1b565b9050602081019050919050565b82818337600083830152505050565b60006112c66112c184611273565b611258565b9050828152602081018484840111156112e2576112e16111f3565b5b6112ed8482856112a4565b509392505050565b600082601f83011261130a576113096111ee565b5b813561131a8482602086016112b3565b91505092915050565b600067ffffffffffffffff82111561133e5761133d6111f8565b5b602082029050602081019050919050565b600080fd5b600061136761136284611323565b611258565b9050808382526020820190506020840283018581111561138a5761138961134f565b5b835b818110156113d157803567ffffffffffffffff8111156113af576113ae6111ee565b5b8086016113bc89826112f5565b8552602085019450505060208101905061138c565b5050509392505050565b600082601f8301126113f0576113ef6111ee565b5b8135611400848260208601611354565b91505092915050565b60008060006060848603121561142257611421610e3e565b5b600084013567ffffffffffffffff8111156114405761143f610e43565b5b61144c868287016112f5565b935050602084013567ffffffffffffffff81111561146d5761146c610e43565b5b611479868287016113db565b925050604061148a86828701610e69565b9150509250925092565b600073ffffffffffffffffffffffffffffffffffffffff82169050919050565b60006114bf82611494565b9050919050565b6114cf816114b4565b82525050565b60006020820190506114ea60008301846114c6565b92915050565b6000819050919050565b611503816114f0565b82525050565b600060208201905061151e60008301846114fa565b92915050565b7f54686520766f74696e672073657373696f6e206973206e6f742061637469766560008201527f2e00000000000000000000000000000000000000000000000000000000000000602082015250565b6000611580602183610ee0565b915061158b82611524565b604082019050919050565b600060208201905081810360008301526115af81611573565b9050919050565b7f496e76616c6964206f7074696f6e2e0000000000000000000000000000000000600082015250565b60006115ec600f83610ee0565b91506115f7826115b6565b602082019050919050565b6000602082019050818103600083015261161b816115df565b9050919050565b7f506c65617365207061792065786163746c7920302e3031206574686572730000600082015250565b6000611658601e83610ee0565b915061166382611622565b602082019050919050565b600060208201905081810360008301526116878161164b565b9050919050565b7f54686520766f74696e672073657373696f6e2068617320656e6465642e000000600082015250565b60006116c4601d83610ee0565b91506116cf8261168e565b602082019050919050565b600060208201905081810360008301526116f3816116b7565b9050919050565b60008160601b9050919050565b6000611712826116fa565b9050919050565b600061172482611707565b9050919050565b61173c611737826114b4565b611719565b82525050565b600061174e828461172b565b60148201915081905092915050565b7f596f75206861766520616c726561647920766f7465642e000000000000000000600082015250565b6000611793601783610ee0565b915061179e8261175d565b602082019050919050565b600060208201905081810360008301526117c281611786565b9050919050565b7f4e487b7100000000000000000000000000000000000000000000000000000000600052603260045260246000fd5b7f4e487b7100000000000000000000000000000000000000000000000000000000600052601160045260246000fd5b600061183282610e48565b915061183d83610e48565b9250828201905080821115611855576118546117f8565b5b92915050565b7f4f6e6c7920746865206f776e65722063616e2077697468647261772066756e6460008201527f732e000000000000000000000000000000000000000000000000000000000000602082015250565b60006118b7602283610ee0565b91506118c28261185b565b604082019050919050565b600060208201905081810360008301526118e6816118aa565b9050919050565b7f566f74696e67206d75737420626520656e646564206265666f7265207769746860008201527f64726177696e672e000000000000000000000000000000000000000000000000602082015250565b6000611949602883610ee0565b9150611954826118ed565b604082019050919050565b600060208201905081810360008301526119788161193c565b9050919050565b7f4e487b7100000000000000000000000000000000000000000000000000000000600052602260045260246000fd5b600060028204905060018216806119c657607f821691505b6020821081036119d9576119d861197f565b5b50919050565b7f4f6e6c7920746865206f776e65722063616e20737461727420766f74696e672060008201527f73657373696f6e2e000000000000000000000000000000000000000000000000602082015250565b6000611a3b602883610ee0565b9150611a46826119df565b604082019050919050565b60006020820190508181036000830152611a6a81611a2e565b9050919050565b7f5468652053657373696f6e206973207374696c6c206163746976650000000000600082015250565b6000611aa7601b83610ee0565b9150611ab282611a71565b602082019050919050565b60006020820190508181036000830152611ad681611a9a565b9050919050565b60008190508160005260206000209050919050565b60006020601f8301049050919050565b600082821b905092915050565b600060088302611b3f7fffffffffffffffffffffffffffffffffffffffffffffffffffffffffffffffff82611b02565b611b498683611b02565b95508019841693508086168417925050509392505050565b6000819050919050565b6000611b86611b81611b7c84610e48565b611b61565b610e48565b9050919050565b6000819050919050565b611ba083611b6b565b611bb4611bac82611b8d565b848454611b0f565b825550505050565b600090565b611bc9611bbc565b611bd4818484611b97565b505050565b5b81811015611bf857611bed600082611bc1565b600181019050611bda565b5050565b601f821115611c3d57611c0e81611add565b611c1784611af2565b81016020851015611c26578190505b611c3a611c3285611af2565b830182611bd9565b50505b505050565b600082821c905092915050565b6000611c6060001984600802611c42565b1980831691505092915050565b6000611c798383611c4f565b9150826002028217905092915050565b611c9282610ed5565b67ffffffffffffffff811115611cab57611caa6111f8565b5b611cb582546119ae565b611cc0828285611bfc565b600060209050601f831160018114611cf35760008415611ce1578287015190505b611ceb8582611c6d565b865550611d53565b601f198416611d0186611add565b60005b82811015611d2957848901518255600182019150602085019450602081019050611d04565b86831015611d465784890151611d42601f891682611c4f565b8355505b6001600288020188555050505b505050505050565b6000611d6682610e48565b9150611d7183610e48565b9250828202611d7f81610e48565b91508282048414831517611d9657611d956117f8565b5b5092915050565b7f4f6e6c7920746865206f776e65722063616e20656e642074686520766f74696e60008201527f672e000000000000000000000000000000000000000000000000000000000000602082015250565b6000611df9602283610ee0565b9150611e0482611d9d565b604082019050919050565b60006020820190508181036000830152611e2881611dec565b9050919050565b7f4e6f2061637469766520766f74696e672073657373696f6e2e00000000000000600082015250565b6000611e65601983610ee0565b9150611e7082611e2f565b602082019050919050565b60006020820190508181036000830152611e9481611e58565b9050919050565b7f4f6e6c7920746865206f776e65722063616e206372656174652061206e65772060008201527f766f74696e6720696e7374616e63652e00000000000000000000000000000000602082015250565b6000611ef7603083610ee0565b9150611f0282611e9b565b604082019050919050565b60006020820190508181036000830152611f2681611eea565b905091905056fea264697066735822122030aca38726de07cd5acc7f80d91a0e791a6f0a4e1ef0c702fa8ad335e697d2da64736f6c634300081b0033",
  "linkReferences": {},
  "deployedLinkReferences": {}
}