{
  "_format": "hh-sol-artifact-1",
  "contractName": "PublicVoting",
  "sourceName": "contracts/PublicVoting.sol",
  "abi": [
    {
      "inputs": [],
      "stateMutability": "nonpayable",
      "type": "constructor"
    },
    {
      "anonymous": false,
      "inputs": [
        {
          "indexed": false,
          "internalType": "uint256",
          "name": "optionIndex",
          "type": "uint256"
        }
      ],
      "name": "VotedCast",
      "type": "event"
    },
    {
      "anonymous": false,
      "inputs": [],
      "name": "VotingEnded",
      "type": "event"
    },
    {
      "inputs": [],
      "name": "endVoting",
      "outputs": [],
      "stateMutability": "nonpayable",
      "type": "function"
    },
    {
      "inputs": [],
      "name": "getResults",
      "outputs": [
        {
          "internalType": "string[]",
          "name": "",
          "type": "string[]"
        },
        {
          "internalType": "uint256[]",
          "name": "",
          "type": "uint256[]"
        }
      ],
      "stateMutability": "view",
      "type": "function"
    },
    {
      "inputs": [],
      "name": "getVotingType",
      "outputs": [
        {
          "internalType": "string",
          "name": "",
          "type": "string"
        }
      ],
      "stateMutability": "pure",
      "type": "function"
    },
    {
      "inputs": [
        {
          "internalType": "address",
          "name": "",
          "type": "address"
        }
      ],
      "name": "hasVoted",
      "outputs": [
        {
          "internalType": "bool",
          "name": "",
          "type": "bool"
        }
      ],
      "stateMutability": "view",
      "type": "function"
    },
    {
      "inputs": [],
      "name": "isVotingActive",
      "outputs": [
        {
          "internalType": "bool",
          "name": "",
          "type": "bool"
        }
      ],
      "stateMutability": "view",
      "type": "function"
    },
    {
      "inputs": [
        {
          "internalType": "string",
          "name": "_question",
          "type": "string"
        },
        {
          "internalType": "string[]",
          "name": "optionNames",
          "type": "string[]"
        },
        {
          "internalType": "uint256",
          "name": "durationInMinutes",
          "type": "uint256"
        }
      ],
      "name": "newVote",
      "outputs": [],
      "stateMutability": "nonpayable",
      "type": "function"
    },
    {
      "inputs": [],
      "name": "newVoting",
      "outputs": [],
      "stateMutability": "nonpayable",
      "type": "function"
    },
    {
      "inputs": [
        {
          "internalType": "uint256",
          "name": "",
          "type": "uint256"
        }
      ],
      "name": "options",
      "outputs": [
        {
          "internalType": "string",
          "name": "name",
          "type": "string"
        },
        {
          "internalType": "uint256",
          "name": "voteCount",
          "type": "uint256"
        }
      ],
      "stateMutability": "view",
      "type": "function"
    },
    {
      "inputs": [],
      "name": "owner",
      "outputs": [
        {
          "internalType": "address",
          "name": "",
          "type": "address"
        }
      ],
      "stateMutability": "view",
      "type": "function"
    },
    {
      "inputs": [],
      "name": "question",
      "outputs": [
        {
          "internalType": "string",
          "name": "",
          "type": "string"
        }
      ],
      "stateMutability": "view",
      "type": "function"
    },
    {
      "inputs": [
        {
          "internalType": "uint256",
          "name": "optionIndex",
          "type": "uint256"
        }
      ],
      "name": "vote",
      "outputs": [],
      "stateMutability": "payable",
      "type": "function"
    },
    {
      "inputs": [
        {
          "internalType": "uint256",
          "name": "",
          "type": "uint256"
        }
      ],
      "name": "voters",
      "outputs": [
        {
          "internalType": "address",
          "name": "",
          "type": "address"
        }
      ],
      "stateMutability": "view",
      "type": "function"
    },
    {
      "inputs": [],
      "name": "votingEndTime",
      "outputs": [
        {
          "internalType": "uint256",
          "name": "",
          "type": "uint256"
        }
      ],
      "stateMutability": "view",
      "type": "function"
    },
    {
      "inputs": [],
      "name": "withdraw",
      "outputs": [],
      "stateMutability": "nonpayable",
      "type": "function"
    }
  ],
  "bytecode": "0x6080604052348015600f57600080fd5b50336000806101000a81548173ffffffffffffffffffffffffffffffffffffffff021916908373ffffffffffffffffffffffffffffffffffffffff16021790555061206a8061005f6000396000f3fe6080604052600436106100dd5760003560e01c80634717f97c1161007f5780638da5cb5b116100595780638da5cb5b14610291578063c3403ddf146102bc578063d0fc1572146102d3578063da58c7d9146102ea576100dd565b80634717f97c1461021157806347cf6f761461023d578063843b1c9a14610268576100dd565b8063263b7ead116100bb578063263b7ead146101665780633ccfd60b146101915780633fad9ae0146101a8578063409e2205146101d3576100dd565b80630121b93f146100e257806309eef43e146100fe5780631ea736e01461013b575b600080fd5b6100fc60048036038101906100f79190610fc3565b610327565b005b34801561010a57600080fd5b506101256004803603810190610120919061104e565b6105fb565b6040516101329190611096565b60405180910390f35b34801561014757600080fd5b5061015061061b565b60405161015d91906110c0565b60405180910390f35b34801561017257600080fd5b5061017b610621565b604051610188919061116b565b60405180910390f35b34801561019d57600080fd5b506101a661065e565b005b3480156101b457600080fd5b506101bd610795565b6040516101ca919061116b565b60405180910390f35b3480156101df57600080fd5b506101fa60048036038101906101f59190610fc3565b610823565b60405161020892919061118d565b60405180910390f35b34801561021d57600080fd5b506102266108d5565b604051610234929190611387565b60405180910390f35b34801561024957600080fd5b50610252610a9c565b60405161025f9190611096565b60405180910390f35b34801561027457600080fd5b5061028f600480360381019061028a91906115d9565b610aaf565b005b34801561029d57600080fd5b506102a6610c60565b6040516102b39190611673565b60405180910390f35b3480156102c857600080fd5b506102d1610c84565b005b3480156102df57600080fd5b506102e8610daa565b005b3480156102f657600080fd5b50610311600480360381019061030c9190610fc3565b610efc565b60405161031e9190611673565b60405180910390f35b600d60009054906101000a900460ff16610376576040517f08c379a000000000000000000000000000000000000000000000000000000000815260040161036d90611700565b60405180910390fd5b600581106103b9576040517f08c379a00000000000000000000000000000000000000000000000000000000081526004016103b09061176c565b60405180910390fd5b662386f26fc100003414610402576040517f08c379a00000000000000000000000000000000000000000000000000000000081526004016103f9906117d8565b60405180910390fd5b600c544210610446576040517f08c379a000000000000000000000000000000000000000000000000000000000815260040161043d90611844565b60405180910390fd5b600e60003373ffffffffffffffffffffffffffffffffffffffff1673ffffffffffffffffffffffffffffffffffffffff16815260200190815260200160002060009054906101000a900460ff16156104d3576040517f08c379a00000000000000000000000000000000000000000000000000000000081526004016104ca906118b0565b60405180910390fd5b6001600282600581106104e9576104e86118d0565b5b6002020160010160008282546104ff919061192e565b925050819055506001600e60003373ffffffffffffffffffffffffffffffffffffffff1673ffffffffffffffffffffffffffffffffffffffff16815260200190815260200160002060006101000a81548160ff021916908315150217905550600f339080600181540180825580915050600190039060005260206000200160009091909190916101000a81548173ffffffffffffffffffffffffffffffffffffffff021916908373ffffffffffffffffffffffffffffffffffffffff1602179055507f0764994cec44d59dfec5a64a5b762b51ea62c652c4e63f53da1ba0835e5c8744816040516105f091906110c0565b60405180910390a150565b600e6020528060005260406000206000915054906101000a900460ff1681565b600c5481565b60606040518060400160405280600681526020017f5075626c69630000000000000000000000000000000000000000000000000000815250905090565b60008054906101000a900473ffffffffffffffffffffffffffffffffffffffff1673ffffffffffffffffffffffffffffffffffffffff163373ffffffffffffffffffffffffffffffffffffffff16146106ec576040517f08c379a00000000000000000000000000000000000000000000000000000000081526004016106e3906119d4565b60405180910390fd5b600d60009054906101000a900460ff161561073c576040517f08c379a000000000000000000000000000000000000000000000000000000000815260040161073390611a66565b60405180910390fd5b60004790506000811115610792573373ffffffffffffffffffffffffffffffffffffffff166108fc829081150290604051600060405180830381858888f19350505050158015610790573d6000803e3d6000fd5b505b50565b600180546107a290611ab5565b80601f01602080910402602001604051908101604052809291908181526020018280546107ce90611ab5565b801561081b5780601f106107f05761010080835404028352916020019161081b565b820191906000526020600020905b8154815290600101906020018083116107fe57829003601f168201915b505050505081565b6002816005811061083357600080fd5b6002020160009150905080600001805461084c90611ab5565b80601f016020809104026020016040519081016040528092919081815260200182805461087890611ab5565b80156108c55780601f1061089a576101008083540402835291602001916108c5565b820191906000526020600020905b8154815290600101906020018083116108a857829003601f168201915b5050505050908060010154905082565b6060806000600567ffffffffffffffff8111156108f5576108f46113c8565b5b60405190808252806020026020018201604052801561092857816020015b60608152602001906001900390816109135790505b5090506000600567ffffffffffffffff811115610948576109476113c8565b5b6040519080825280602002602001820160405280156109765781602001602082028036833780820191505090505b50905060005b6005811015610a8f5760028160058110610999576109986118d0565b5b6002020160000180546109ab90611ab5565b80601f01602080910402602001604051908101604052809291908181526020018280546109d790611ab5565b8015610a245780601f106109f957610100808354040283529160200191610a24565b820191906000526020600020905b815481529060010190602001808311610a0757829003601f168201915b5050505050838281518110610a3c57610a3b6118d0565b5b602002602001018190525060028160058110610a5b57610a5a6118d0565b5b6002020160010154828281518110610a7657610a756118d0565b5b602002602001018181525050808060010191505061097c565b5081819350935050509091565b600d60009054906101000a900460ff1681565b60008054906101000a900473ffffffffffffffffffffffffffffffffffffffff1673ffffffffffffffffffffffffffffffffffffffff163373ffffffffffffffffffffffffffffffffffffffff1614610b3d576040517f08c379a0000000000000000000000000000000000000000000000000000000008152600401610b3490611b58565b60405180910390fd5b600d60009054906101000a900460ff1615610b8d576040517f08c379a0000000000000000000000000000000000000000000000000000000008152600401610b8490611bc4565b60405180910390fd5b8260019081610b9c9190611d90565b50603c81610baa9190611e62565b42610bb5919061192e565b600c8190555060005b8251811015610c3f576040518060400160405280848381518110610be557610be46118d0565b5b60200260200101518152602001600081525060028260058110610c0b57610c0a6118d0565b5b600202016000820151816000019081610c249190611d90565b50602082015181600101559050508080600101915050610bbe565b506001600d60006101000a81548160ff021916908315150217905550505050565b60008054906101000a900473ffffffffffffffffffffffffffffffffffffffff1681565b60008054906101000a900473ffffffffffffffffffffffffffffffffffffffff1673ffffffffffffffffffffffffffffffffffffffff163373ffffffffffffffffffffffffffffffffffffffff1614610d12576040517f08c379a0000000000000000000000000000000000000000000000000000000008152600401610d0990611f16565b60405180910390fd5b600d60009054906101000a900460ff16610d61576040517f08c379a0000000000000000000000000000000000000000000000000000000008152600401610d5890611f82565b60405180910390fd5b6000600d60006101000a81548160ff0219169083151502179055507f7a19ed057db79e3c2fa0b97a54b43bef4fce74b31bb6c01af514b9a18a7f70ab60405160405180910390a1565b60008054906101000a900473ffffffffffffffffffffffffffffffffffffffff1673ffffffffffffffffffffffffffffffffffffffff163373ffffffffffffffffffffffffffffffffffffffff1614610e38576040517f08c379a0000000000000000000000000000000000000000000000000000000008152600401610e2f90612014565b60405180910390fd5b60005b600f80549050811015610eeb576000600e6000600f8481548110610e6257610e616118d0565b5b9060005260206000200160009054906101000a900473ffffffffffffffffffffffffffffffffffffffff1673ffffffffffffffffffffffffffffffffffffffff1673ffffffffffffffffffffffffffffffffffffffff16815260200190815260200160002060006101000a81548160ff0219169083151502179055508080600101915050610e3b565b50600f6000610efa9190610f3b565b565b600f8181548110610f0c57600080fd5b906000526020600020016000915054906101000a900473ffffffffffffffffffffffffffffffffffffffff1681565b5080546000825590600052602060002090810190610f599190610f5c565b50565b5b80821115610f75576000816000905550600101610f5d565b5090565b6000604051905090565b600080fd5b600080fd5b6000819050919050565b610fa081610f8d565b8114610fab57600080fd5b50565b600081359050610fbd81610f97565b92915050565b600060208284031215610fd957610fd8610f83565b5b6000610fe784828501610fae565b91505092915050565b600073ffffffffffffffffffffffffffffffffffffffff82169050919050565b600061101b82610ff0565b9050919050565b61102b81611010565b811461103657600080fd5b50565b60008135905061104881611022565b92915050565b60006020828403121561106457611063610f83565b5b600061107284828501611039565b91505092915050565b60008115159050919050565b6110908161107b565b82525050565b60006020820190506110ab6000830184611087565b92915050565b6110ba81610f8d565b82525050565b60006020820190506110d560008301846110b1565b92915050565b600081519050919050565b600082825260208201905092915050565b60005b838110156111155780820151818401526020810190506110fa565b60008484015250505050565b6000601f19601f8301169050919050565b600061113d826110db565b61114781856110e6565b93506111578185602086016110f7565b61116081611121565b840191505092915050565b600060208201905081810360008301526111858184611132565b905092915050565b600060408201905081810360008301526111a78185611132565b90506111b660208301846110b1565b9392505050565b600081519050919050565b600082825260208201905092915050565b6000819050602082019050919050565b600082825260208201905092915050565b6000611205826110db565b61120f81856111e9565b935061121f8185602086016110f7565b61122881611121565b840191505092915050565b600061123f83836111fa565b905092915050565b6000602082019050919050565b600061125f826111bd565b61126981856111c8565b93508360208202850161127b856111d9565b8060005b858110156112b757848403895281516112988582611233565b94506112a383611247565b925060208a0199505060018101905061127f565b50829750879550505050505092915050565b600081519050919050565b600082825260208201905092915050565b6000819050602082019050919050565b6112fe81610f8d565b82525050565b600061131083836112f5565b60208301905092915050565b6000602082019050919050565b6000611334826112c9565b61133e81856112d4565b9350611349836112e5565b8060005b8381101561137a5781516113618882611304565b975061136c8361131c565b92505060018101905061134d565b5085935050505092915050565b600060408201905081810360008301526113a18185611254565b905081810360208301526113b58184611329565b90509392505050565b600080fd5b600080fd5b7f4e487b7100000000000000000000000000000000000000000000000000000000600052604160045260246000fd5b61140082611121565b810181811067ffffffffffffffff8211171561141f5761141e6113c8565b5b80604052505050565b6000611432610f79565b905061143e82826113f7565b919050565b600067ffffffffffffffff82111561145e5761145d6113c8565b5b61146782611121565b9050602081019050919050565b82818337600083830152505050565b600061149661149184611443565b611428565b9050828152602081018484840111156114b2576114b16113c3565b5b6114bd848285611474565b509392505050565b600082601f8301126114da576114d96113be565b5b81356114ea848260208601611483565b91505092915050565b600067ffffffffffffffff82111561150e5761150d6113c8565b5b602082029050602081019050919050565b600080fd5b6000611537611532846114f3565b611428565b9050808382526020820190506020840283018581111561155a5761155961151f565b5b835b818110156115a157803567ffffffffffffffff81111561157f5761157e6113be565b5b80860161158c89826114c5565b8552602085019450505060208101905061155c565b5050509392505050565b600082601f8301126115c0576115bf6113be565b5b81356115d0848260208601611524565b91505092915050565b6000806000606084860312156115f2576115f1610f83565b5b600084013567ffffffffffffffff8111156116105761160f610f88565b5b61161c868287016114c5565b935050602084013567ffffffffffffffff81111561163d5761163c610f88565b5b611649868287016115ab565b925050604061165a86828701610fae565b9150509250925092565b61166d81611010565b82525050565b60006020820190506116886000830184611664565b92915050565b7f54686520766f74696e672073657373696f6e206973206e6f742061637469766560008201527f2e00000000000000000000000000000000000000000000000000000000000000602082015250565b60006116ea6021836110e6565b91506116f58261168e565b604082019050919050565b60006020820190508181036000830152611719816116dd565b9050919050565b7f496e76616c6964206f7074696f6e2e0000000000000000000000000000000000600082015250565b6000611756600f836110e6565b915061176182611720565b602082019050919050565b6000602082019050818103600083015261178581611749565b9050919050565b7f506c65617365207061792065786163746c7920302e3031206574686572730000600082015250565b60006117c2601e836110e6565b91506117cd8261178c565b602082019050919050565b600060208201905081810360008301526117f1816117b5565b9050919050565b7f54686520766f74696e672073657373696f6e2068617320656e6465642e000000600082015250565b600061182e601d836110e6565b9150611839826117f8565b602082019050919050565b6000602082019050818103600083015261185d81611821565b9050919050565b7f596f75206861766520616c726561647920766f7465642e000000000000000000600082015250565b600061189a6017836110e6565b91506118a582611864565b602082019050919050565b600060208201905081810360008301526118c98161188d565b9050919050565b7f4e487b7100000000000000000000000000000000000000000000000000000000600052603260045260246000fd5b7f4e487b7100000000000000000000000000000000000000000000000000000000600052601160045260246000fd5b600061193982610f8d565b915061194483610f8d565b925082820190508082111561195c5761195b6118ff565b5b92915050565b7f4f6e6c7920746865206f776e65722063616e2077697468647261772066756e6460008201527f732e000000000000000000000000000000000000000000000000000000000000602082015250565b60006119be6022836110e6565b91506119c982611962565b604082019050919050565b600060208201905081810360008301526119ed816119b1565b9050919050565b7f566f74696e67206d75737420626520656e646564206265666f7265207769746860008201527f64726177696e672e000000000000000000000000000000000000000000000000602082015250565b6000611a506028836110e6565b9150611a5b826119f4565b604082019050919050565b60006020820190508181036000830152611a7f81611a43565b9050919050565b7f4e487b7100000000000000000000000000000000000000000000000000000000600052602260045260246000fd5b60006002820490506001821680611acd57607f821691505b602082108103611ae057611adf611a86565b5b50919050565b7f4f6e6c7920746865206f776e65722063616e20737461727420766f74696e672060008201527f73657373696f6e2e000000000000000000000000000000000000000000000000602082015250565b6000611b426028836110e6565b9150611b4d82611ae6565b604082019050919050565b60006020820190508181036000830152611b7181611b35565b9050919050565b7f5468652053657373696f6e206973207374696c6c206163746976650000000000600082015250565b6000611bae601b836110e6565b9150611bb982611b78565b602082019050919050565b60006020820190508181036000830152611bdd81611ba1565b9050919050565b60008190508160005260206000209050919050565b60006020601f8301049050919050565b600082821b905092915050565b600060088302611c467fffffffffffffffffffffffffffffffffffffffffffffffffffffffffffffffff82611c09565b611c508683611c09565b95508019841693508086168417925050509392505050565b6000819050919050565b6000611c8d611c88611c8384610f8d565b611c68565b610f8d565b9050919050565b6000819050919050565b611ca783611c72565b611cbb611cb382611c94565b848454611c16565b825550505050565b600090565b611cd0611cc3565b611cdb818484611c9e565b505050565b5b81811015611cff57611cf4600082611cc8565b600181019050611ce1565b5050565b601f821115611d4457611d1581611be4565b611d1e84611bf9565b81016020851015611d2d578190505b611d41611d3985611bf9565b830182611ce0565b50505b505050565b600082821c905092915050565b6000611d6760001984600802611d49565b1980831691505092915050565b6000611d808383611d56565b9150826002028217905092915050565b611d99826110db565b67ffffffffffffffff811115611db257611db16113c8565b5b611dbc8254611ab5565b611dc7828285611d03565b600060209050601f831160018114611dfa5760008415611de8578287015190505b611df28582611d74565b865550611e5a565b601f198416611e0886611be4565b60005b82811015611e3057848901518255600182019150602085019450602081019050611e0b565b86831015611e4d5784890151611e49601f891682611d56565b8355505b6001600288020188555050505b505050505050565b6000611e6d82610f8d565b9150611e7883610f8d565b9250828202611e8681610f8d565b91508282048414831517611e9d57611e9c6118ff565b5b5092915050565b7f4f6e6c7920746865206f776e65722063616e20656e642074686520766f74696e60008201527f672e000000000000000000000000000000000000000000000000000000000000602082015250565b6000611f006022836110e6565b9150611f0b82611ea4565b604082019050919050565b60006020820190508181036000830152611f2f81611ef3565b9050919050565b7f4e6f2061637469766520766f74696e672073657373696f6e2e00000000000000600082015250565b6000611f6c6019836110e6565b9150611f7782611f36565b602082019050919050565b60006020820190508181036000830152611f9b81611f5f565b9050919050565b7f4f6e6c7920746865206f776e65722063616e206372656174652061206e65772060008201527f766f74696e6720696e7374616e63652e00000000000000000000000000000000602082015250565b6000611ffe6030836110e6565b915061200982611fa2565b604082019050919050565b6000602082019050818103600083015261202d81611ff1565b905091905056fea26469706673582212204c750c93e84d2e44b587373aac0331580162c5783846c4ceebf95b7780de0c2b64736f6c634300081b0033",
  "linkReferences": {},
  "deployedLinkReferences": {}
}