{
  "contracts/PublicVoting.sol": {
    "PublicVoting": {
      "abi": [
        {
          "inputs": [],
          "stateMutability": "nonpayable",
          "type": "constructor"
        },
        {
          "anonymous": false,
          "inputs": [
            {
              "indexed": false,
              "internalType": "uint256",
              "name": "optionIndex",
              "type": "uint256"
            }
          ],
          "name": "VotedCast",
          "type": "event"
        },
        {
          "anonymous": false,
          "inputs": [],
          "name": "VotingEnded",
          "type": "event"
        },
        {
          "inputs": [],
          "name": "endVoting",
          "outputs": [],
          "stateMutability": "nonpayable",
          "type": "function"
        },
        {
          "inputs": [],
          "name": "getResults",
          "outputs": [
            {
              "internalType": "string[]",
              "name": "",
              "type": "string[]"
            },
            {
              "internalType": "uint256[]",
              "name": "",
              "type": "uint256[]"
            }
          ],
          "stateMutability": "view",
          "type": "function"
        },
        {
          "inputs": [],
          "name": "getVotingType",
          "outputs": [
            {
              "internalType": "string",
              "name": "",
              "type": "string"
            }
          ],
          "stateMutability": "pure",
          "type": "function"
        },
        {
          "inputs": [
            {
              "internalType": "address",
              "name": "",
              "type": "address"
            }
          ],
          "name": "hasVoted",
          "outputs": [
            {
              "internalType": "bool",
              "name": "",
              "type": "bool"
            }
          ],
          "stateMutability": "view",
          "type": "function"
        },
        {
          "inputs": [],
          "name": "isVotingActive",
          "outputs": [
            {
              "internalType": "bool",
              "name": "",
              "type": "bool"
            }
          ],
          "stateMutability": "view",
          "type": "function"
        },
        {
          "inputs": [
            {
              "internalType": "string",
              "name": "_question",
              "type": "string"
            },
            {
              "internalType": "string[]",
              "name": "optionNames",
              "type": "string[]"
            },
            {
              "internalType": "uint256",
              "name": "durationInMinutes",
              "type": "uint256"
            }
          ],
          "name": "newVote",
          "outputs": [],
          "stateMutability": "nonpayable",
          "type": "function"
        },
        {
          "inputs": [],
          "name": "newVoting",
          "outputs": [],
          "stateMutability": "nonpayable",
          "type": "function"
        },
        {
          "inputs": [
            {
              "internalType": "uint256",
              "name": "",
              "type": "uint256"
            }
          ],
          "name": "options",
          "outputs": [
            {
              "internalType": "string",
              "name": "name",
              "type": "string"
            },
            {
              "internalType": "uint256",
              "name": "voteCount",
              "type": "uint256"
            }
          ],
          "stateMutability": "view",
          "type": "function"
        },
        {
          "inputs": [],
          "name": "owner",
          "outputs": [
            {
              "internalType": "address",
              "name": "",
              "type": "address"
            }
          ],
          "stateMutability": "view",
          "type": "function"
        },
        {
          "inputs": [],
          "name": "question",
          "outputs": [
            {
              "internalType": "string",
              "name": "",
              "type": "string"
            }
          ],
          "stateMutability": "view",
          "type": "function"
        },
        {
          "inputs": [
            {
              "internalType": "uint256",
              "name": "optionIndex",
              "type": "uint256"
            }
          ],
          "name": "vote",
          "outputs": [],
          "stateMutability": "payable",
          "type": "function"
        },
        {
          "inputs": [
            {
              "internalType": "uint256",
              "name": "",
              "type": "uint256"
            }
          ],
          "name": "voters",
          "outputs": [
            {
              "internalType": "address",
              "name": "",
              "type": "address"
            }
          ],
          "stateMutability": "view",
          "type": "function"
        },
        {
          "inputs": [],
          "name": "votingEndTime",
          "outputs": [
            {
              "internalType": "uint256",
              "name": "",
              "type": "uint256"
            }
          ],
          "stateMutability": "view",
          "type": "function"
        },
        {
          "inputs": [],
          "name": "withdraw",
          "outputs": [],
          "stateMutability": "nonpayable",
          "type": "function"
        }
      ],
      "evm": {
        "bytecode": {
          "linkReferences": {},
          "object": "6080604052348015600f57600080fd5b50336000806101000a81548173ffffffffffffffffffffffffffffffffffffffff021916908373ffffffffffffffffffffffffffffffffffffffff16021790555061206a8061005f6000396000f3fe6080604052600436106100dd5760003560e01c80634717f97c1161007f5780638da5cb5b116100595780638da5cb5b14610291578063c3403ddf146102bc578063d0fc1572146102d3578063da58c7d9146102ea576100dd565b80634717f97c1461021157806347cf6f761461023d578063843b1c9a14610268576100dd565b8063263b7ead116100bb578063263b7ead146101665780633ccfd60b146101915780633fad9ae0146101a8578063409e2205146101d3576100dd565b80630121b93f146100e257806309eef43e146100fe5780631ea736e01461013b575b600080fd5b6100fc60048036038101906100f79190610fc3565b610327565b005b34801561010a57600080fd5b506101256004803603810190610120919061104e565b6105fb565b6040516101329190611096565b60405180910390f35b34801561014757600080fd5b5061015061061b565b60405161015d91906110c0565b60405180910390f35b34801561017257600080fd5b5061017b610621565b604051610188919061116b565b60405180910390f35b34801561019d57600080fd5b506101a661065e565b005b3480156101b457600080fd5b506101bd610795565b6040516101ca919061116b565b60405180910390f35b3480156101df57600080fd5b506101fa60048036038101906101f59190610fc3565b610823565b60405161020892919061118d565b60405180910390f35b34801561021d57600080fd5b506102266108d5565b604051610234929190611387565b60405180910390f35b34801561024957600080fd5b50610252610a9c565b60405161025f9190611096565b60405180910390f35b34801561027457600080fd5b5061028f600480360381019061028a91906115d9565b610aaf565b005b34801561029d57600080fd5b506102a6610c60565b6040516102b39190611673565b60405180910390f35b3480156102c857600080fd5b506102d1610c84565b005b3480156102df57600080fd5b506102e8610daa565b005b3480156102f657600080fd5b50610311600480360381019061030c9190610fc3565b610efc565b60405161031e9190611673565b60405180910390f35b600d60009054906101000a900460ff16610376576040517f08c379a000000000000000000000000000000000000000000000000000000000815260040161036d90611700565b60405180910390fd5b600581106103b9576040517f08c379a00000000000000000000000000000000000000000000000000000000081526004016103b09061176c565b60405180910390fd5b662386f26fc100003414610402576040517f08c379a00000000000000000000000000000000000000000000000000000000081526004016103f9906117d8565b60405180910390fd5b600c544210610446576040517f08c379a000000000000000000000000000000000000000000000000000000000815260040161043d90611844565b60405180910390fd5b600e60003373ffffffffffffffffffffffffffffffffffffffff1673ffffffffffffffffffffffffffffffffffffffff16815260200190815260200160002060009054906101000a900460ff16156104d3576040517f08c379a00000000000000000000000000000000000000000000000000000000081526004016104ca906118b0565b60405180910390fd5b6001600282600581106104e9576104e86118d0565b5b6002020160010160008282546104ff919061192e565b925050819055506001600e60003373ffffffffffffffffffffffffffffffffffffffff1673ffffffffffffffffffffffffffffffffffffffff16815260200190815260200160002060006101000a81548160ff021916908315150217905550600f339080600181540180825580915050600190039060005260206000200160009091909190916101000a81548173ffffffffffffffffffffffffffffffffffffffff021916908373ffffffffffffffffffffffffffffffffffffffff1602179055507f0764994cec44d59dfec5a64a5b762b51ea62c652c4e63f53da1ba0835e5c8744816040516105f091906110c0565b60405180910390a150565b600e6020528060005260406000206000915054906101000a900460ff1681565b600c5481565b60606040518060400160405280600681526020017f5075626c69630000000000000000000000000000000000000000000000000000815250905090565b60008054906101000a900473ffffffffffffffffffffffffffffffffffffffff1673ffffffffffffffffffffffffffffffffffffffff163373ffffffffffffffffffffffffffffffffffffffff16146106ec576040517f08c379a00000000000000000000000000000000000000000000000000000000081526004016106e3906119d4565b60405180910390fd5b600d60009054906101000a900460ff161561073c576040517f08c379a000000000000000000000000000000000000000000000000000000000815260040161073390611a66565b60405180910390fd5b60004790506000811115610792573373ffffffffffffffffffffffffffffffffffffffff166108fc829081150290604051600060405180830381858888f19350505050158015610790573d6000803e3d6000fd5b505b50565b600180546107a290611ab5565b80601f01602080910402602001604051908101604052809291908181526020018280546107ce90611ab5565b801561081b5780601f106107f05761010080835404028352916020019161081b565b820191906000526020600020905b8154815290600101906020018083116107fe57829003601f168201915b505050505081565b6002816005811061083357600080fd5b6002020160009150905080600001805461084c90611ab5565b80601f016020809104026020016040519081016040528092919081815260200182805461087890611ab5565b80156108c55780601f1061089a576101008083540402835291602001916108c5565b820191906000526020600020905b8154815290600101906020018083116108a857829003601f168201915b5050505050908060010154905082565b6060806000600567ffffffffffffffff8111156108f5576108f46113c8565b5b60405190808252806020026020018201604052801561092857816020015b60608152602001906001900390816109135790505b5090506000600567ffffffffffffffff811115610948576109476113c8565b5b6040519080825280602002602001820160405280156109765781602001602082028036833780820191505090505b50905060005b6005811015610a8f5760028160058110610999576109986118d0565b5b6002020160000180546109ab90611ab5565b80601f01602080910402602001604051908101604052809291908181526020018280546109d790611ab5565b8015610a245780601f106109f957610100808354040283529160200191610a24565b820191906000526020600020905b815481529060010190602001808311610a0757829003601f168201915b5050505050838281518110610a3c57610a3b6118d0565b5b602002602001018190525060028160058110610a5b57610a5a6118d0565b5b6002020160010154828281518110610a7657610a756118d0565b5b602002602001018181525050808060010191505061097c565b5081819350935050509091565b600d60009054906101000a900460ff1681565b60008054906101000a900473ffffffffffffffffffffffffffffffffffffffff1673ffffffffffffffffffffffffffffffffffffffff163373ffffffffffffffffffffffffffffffffffffffff1614610b3d576040517f08c379a0000000000000000000000000000000000000000000000000000000008152600401610b3490611b58565b60405180910390fd5b600d60009054906101000a900460ff1615610b8d576040517f08c379a0000000000000000000000000000000000000000000000000000000008152600401610b8490611bc4565b60405180910390fd5b8260019081610b9c9190611d90565b50603c81610baa9190611e62565b42610bb5919061192e565b600c8190555060005b8251811015610c3f576040518060400160405280848381518110610be557610be46118d0565b5b60200260200101518152602001600081525060028260058110610c0b57610c0a6118d0565b5b600202016000820151816000019081610c249190611d90565b50602082015181600101559050508080600101915050610bbe565b506001600d60006101000a81548160ff021916908315150217905550505050565b60008054906101000a900473ffffffffffffffffffffffffffffffffffffffff1681565b60008054906101000a900473ffffffffffffffffffffffffffffffffffffffff1673ffffffffffffffffffffffffffffffffffffffff163373ffffffffffffffffffffffffffffffffffffffff1614610d12576040517f08c379a0000000000000000000000000000000000000000000000000000000008152600401610d0990611f16565b60405180910390fd5b600d60009054906101000a900460ff16610d61576040517f08c379a0000000000000000000000000000000000000000000000000000000008152600401610d5890611f82565b60405180910390fd5b6000600d60006101000a81548160ff0219169083151502179055507f7a19ed057db79e3c2fa0b97a54b43bef4fce74b31bb6c01af514b9a18a7f70ab60405160405180910390a1565b60008054906101000a900473ffffffffffffffffffffffffffffffffffffffff1673ffffffffffffffffffffffffffffffffffffffff163373ffffffffffffffffffffffffffffffffffffffff1614610e38576040517f08c379a0000000000000000000000000000000000000000000000000000000008152600401610e2f90612014565b60405180910390fd5b60005b600f80549050811015610eeb576000600e6000600f8481548110610e6257610e616118d0565b5b9060005260206000200160009054906101000a900473ffffffffffffffffffffffffffffffffffffffff1673ffffffffffffffffffffffffffffffffffffffff1673ffffffffffffffffffffffffffffffffffffffff16815260200190815260200160002060006101000a81548160ff0219169083151502179055508080600101915050610e3b565b50600f6000610efa9190610f3b565b565b600f8181548110610f0c57600080fd5b906000526020600020016000915054906101000a900473ffffffffffffffffffffffffffffffffffffffff1681565b5080546000825590600052602060002090810190610f599190610f5c565b50565b5b80821115610f75576000816000905550600101610f5d565b5090565b6000604051905090565b600080fd5b600080fd5b6000819050919050565b610fa081610f8d565b8114610fab57600080fd5b50565b600081359050610fbd81610f97565b92915050565b600060208284031215610fd957610fd8610f83565b5b6000610fe784828501610fae565b91505092915050565b600073ffffffffffffffffffffffffffffffffffffffff82169050919050565b600061101b82610ff0565b9050919050565b61102b81611010565b811461103657600080fd5b50565b60008135905061104881611022565b92915050565b60006020828403121561106457611063610f83565b5b600061107284828501611039565b91505092915050565b60008115159050919050565b6110908161107b565b82525050565b60006020820190506110ab6000830184611087565b92915050565b6110ba81610f8d565b82525050565b60006020820190506110d560008301846110b1565b92915050565b600081519050919050565b600082825260208201905092915050565b60005b838110156111155780820151818401526020810190506110fa565b60008484015250505050565b6000601f19601f8301169050919050565b600061113d826110db565b61114781856110e6565b93506111578185602086016110f7565b61116081611121565b840191505092915050565b600060208201905081810360008301526111858184611132565b905092915050565b600060408201905081810360008301526111a78185611132565b90506111b660208301846110b1565b9392505050565b600081519050919050565b600082825260208201905092915050565b6000819050602082019050919050565b600082825260208201905092915050565b6000611205826110db565b61120f81856111e9565b935061121f8185602086016110f7565b61122881611121565b840191505092915050565b600061123f83836111fa565b905092915050565b6000602082019050919050565b600061125f826111bd565b61126981856111c8565b93508360208202850161127b856111d9565b8060005b858110156112b757848403895281516112988582611233565b94506112a383611247565b925060208a0199505060018101905061127f565b50829750879550505050505092915050565b600081519050919050565b600082825260208201905092915050565b6000819050602082019050919050565b6112fe81610f8d565b82525050565b600061131083836112f5565b60208301905092915050565b6000602082019050919050565b6000611334826112c9565b61133e81856112d4565b9350611349836112e5565b8060005b8381101561137a5781516113618882611304565b975061136c8361131c565b92505060018101905061134d565b5085935050505092915050565b600060408201905081810360008301526113a18185611254565b905081810360208301526113b58184611329565b90509392505050565b600080fd5b600080fd5b7f4e487b7100000000000000000000000000000000000000000000000000000000600052604160045260246000fd5b61140082611121565b810181811067ffffffffffffffff8211171561141f5761141e6113c8565b5b80604052505050565b6000611432610f79565b905061143e82826113f7565b919050565b600067ffffffffffffffff82111561145e5761145d6113c8565b5b61146782611121565b9050602081019050919050565b82818337600083830152505050565b600061149661149184611443565b611428565b9050828152602081018484840111156114b2576114b16113c3565b5b6114bd848285611474565b509392505050565b600082601f8301126114da576114d96113be565b5b81356114ea848260208601611483565b91505092915050565b600067ffffffffffffffff82111561150e5761150d6113c8565b5b602082029050602081019050919050565b600080fd5b6000611537611532846114f3565b611428565b9050808382526020820190506020840283018581111561155a5761155961151f565b5b835b818110156115a157803567ffffffffffffffff81111561157f5761157e6113be565b5b80860161158c89826114c5565b8552602085019450505060208101905061155c565b5050509392505050565b600082601f8301126115c0576115bf6113be565b5b81356115d0848260208601611524565b91505092915050565b6000806000606084860312156115f2576115f1610f83565b5b600084013567ffffffffffffffff8111156116105761160f610f88565b5b61161c868287016114c5565b935050602084013567ffffffffffffffff81111561163d5761163c610f88565b5b611649868287016115ab565b925050604061165a86828701610fae565b9150509250925092565b61166d81611010565b82525050565b60006020820190506116886000830184611664565b92915050565b7f54686520766f74696e672073657373696f6e206973206e6f742061637469766560008201527f2e00000000000000000000000000000000000000000000000000000000000000602082015250565b60006116ea6021836110e6565b91506116f58261168e565b604082019050919050565b60006020820190508181036000830152611719816116dd565b9050919050565b7f496e76616c6964206f7074696f6e2e0000000000000000000000000000000000600082015250565b6000611756600f836110e6565b915061176182611720565b602082019050919050565b6000602082019050818103600083015261178581611749565b9050919050565b7f506c65617365207061792065786163746c7920302e3031206574686572730000600082015250565b60006117c2601e836110e6565b91506117cd8261178c565b602082019050919050565b600060208201905081810360008301526117f1816117b5565b9050919050565b7f54686520766f74696e672073657373696f6e2068617320656e6465642e000000600082015250565b600061182e601d836110e6565b9150611839826117f8565b602082019050919050565b6000602082019050818103600083015261185d81611821565b9050919050565b7f596f75206861766520616c726561647920766f7465642e000000000000000000600082015250565b600061189a6017836110e6565b91506118a582611864565b602082019050919050565b600060208201905081810360008301526118c98161188d565b9050919050565b7f4e487b7100000000000000000000000000000000000000000000000000000000600052603260045260246000fd5b7f4e487b7100000000000000000000000000000000000000000000000000000000600052601160045260246000fd5b600061193982610f8d565b915061194483610f8d565b925082820190508082111561195c5761195b6118ff565b5b92915050565b7f4f6e6c7920746865206f776e65722063616e2077697468647261772066756e6460008201527f732e000000000000000000000000000000000000000000000000000000000000602082015250565b60006119be6022836110e6565b91506119c982611962565b604082019050919050565b600060208201905081810360008301526119ed816119b1565b9050919050565b7f566f74696e67206d75737420626520656e646564206265666f7265207769746860008201527f64726177696e672e000000000000000000000000000000000000000000000000602082015250565b6000611a506028836110e6565b9150611a5b826119f4565b604082019050919050565b60006020820190508181036000830152611a7f81611a43565b9050919050565b7f4e487b7100000000000000000000000000000000000000000000000000000000600052602260045260246000fd5b60006002820490506001821680611acd57607f821691505b602082108103611ae057611adf611a86565b5b50919050565b7f4f6e6c7920746865206f776e65722063616e20737461727420766f74696e672060008201527f73657373696f6e2e000000000000000000000000000000000000000000000000602082015250565b6000611b426028836110e6565b9150611b4d82611ae6565b604082019050919050565b60006020820190508181036000830152611b7181611b35565b9050919050565b7f5468652053657373696f6e206973207374696c6c206163746976650000000000600082015250565b6000611bae601b836110e6565b9150611bb982611b78565b602082019050919050565b60006020820190508181036000830152611bdd81611ba1565b9050919050565b60008190508160005260206000209050919050565b60006020601f8301049050919050565b600082821b905092915050565b600060088302611c467fffffffffffffffffffffffffffffffffffffffffffffffffffffffffffffffff82611c09565b611c508683611c09565b95508019841693508086168417925050509392505050565b6000819050919050565b6000611c8d611c88611c8384610f8d565b611c68565b610f8d565b9050919050565b6000819050919050565b611ca783611c72565b611cbb611cb382611c94565b848454611c16565b825550505050565b600090565b611cd0611cc3565b611cdb818484611c9e565b505050565b5b81811015611cff57611cf4600082611cc8565b600181019050611ce1565b5050565b601f821115611d4457611d1581611be4565b611d1e84611bf9565b81016020851015611d2d578190505b611d41611d3985611bf9565b830182611ce0565b50505b505050565b600082821c905092915050565b6000611d6760001984600802611d49565b1980831691505092915050565b6000611d808383611d56565b9150826002028217905092915050565b611d99826110db565b67ffffffffffffffff811115611db257611db16113c8565b5b611dbc8254611ab5565b611dc7828285611d03565b600060209050601f831160018114611dfa5760008415611de8578287015190505b611df28582611d74565b865550611e5a565b601f198416611e0886611be4565b60005b82811015611e3057848901518255600182019150602085019450602081019050611e0b565b86831015611e4d5784890151611e49601f891682611d56565b8355505b6001600288020188555050505b505050505050565b6000611e6d82610f8d565b9150611e7883610f8d565b9250828202611e8681610f8d565b91508282048414831517611e9d57611e9c6118ff565b5b5092915050565b7f4f6e6c7920746865206f776e65722063616e20656e642074686520766f74696e60008201527f672e000000000000000000000000000000000000000000000000000000000000602082015250565b6000611f006022836110e6565b9150611f0b82611ea4565b604082019050919050565b60006020820190508181036000830152611f2f81611ef3565b9050919050565b7f4e6f2061637469766520766f74696e672073657373696f6e2e00000000000000600082015250565b6000611f6c6019836110e6565b9150611f7782611f36565b602082019050919050565b60006020820190508181036000830152611f9b81611f5f565b9050919050565b7f4f6e6c7920746865206f776e65722063616e206372656174652061206e65772060008201527f766f74696e6720696e7374616e63652e00000000000000000000000000000000602082015250565b6000611ffe6030836110e6565b915061200982611fa2565b604082019050919050565b6000602082019050818103600083015261202d81611ff1565b905091905056fea26469706673582212204c750c93e84d2e44b587373aac0331580162c5783846c4ceebf95b7780de0c2b64736f6c634300081b0033",
          "opcodes": "PUSH1 0x80 PUSH1 0x40 MSTORE CALLVALUE DUP1 ISZERO PUSH1 0xF JUMPI PUSH1 0x0 DUP1 REVERT JUMPDEST POP CALLER PUSH1 0x0 DUP1 PUSH2 0x100 EXP DUP2 SLOAD DUP2 PUSH20 0xFFFFFFFFFFFFFFFFFFFFFFFFFFFFFFFFFFFFFFFF MUL NOT AND SWAP1 DUP4 PUSH20 0xFFFFFFFFFFFFFFFFFFFFFFFFFFFFFFFFFFFFFFFF AND MUL OR SWAP1 SSTORE POP PUSH2 0x206A DUP1 PUSH2 0x5F PUSH1 0x0 CODECOPY PUSH1 0x0 RETURN INVALID PUSH1 0x80 PUSH1 0x40 MSTORE PUSH1 0x4 CALLDATASIZE LT PUSH2 0xDD JUMPI PUSH1 0x0 CALLDATALOAD PUSH1 0xE0 SHR DUP1 PUSH4 0x4717F97C GT PUSH2 0x7F JUMPI DUP1 PUSH4 0x8DA5CB5B GT PUSH2 0x59 JUMPI DUP1 PUSH4 0x8DA5CB5B EQ PUSH2 0x291 JUMPI DUP1 PUSH4 0xC3403DDF EQ PUSH2 0x2BC JUMPI DUP1 PUSH4 0xD0FC1572 EQ PUSH2 0x2D3 JUMPI DUP1 PUSH4 0xDA58C7D9 EQ PUSH2 0x2EA JUMPI PUSH2 0xDD JUMP JUMPDEST DUP1 PUSH4 0x4717F97C EQ PUSH2 0x211 JUMPI DUP1 PUSH4 0x47CF6F76 EQ PUSH2 0x23D JUMPI DUP1 PUSH4 0x843B1C9A EQ PUSH2 0x268 JUMPI PUSH2 0xDD JUMP JUMPDEST DUP1 PUSH4 0x263B7EAD GT PUSH2 0xBB JUMPI DUP1 PUSH4 0x263B7EAD EQ PUSH2 0x166 JUMPI DUP1 PUSH4 0x3CCFD60B EQ PUSH2 0x191 JUMPI DUP1 PUSH4 0x3FAD9AE0 EQ PUSH2 0x1A8 JUMPI DUP1 PUSH4 0x409E2205 EQ PUSH2 0x1D3 JUMPI PUSH2 0xDD JUMP JUMPDEST DUP1 PUSH4 0x121B93F EQ PUSH2 0xE2 JUMPI DUP1 PUSH4 0x9EEF43E EQ PUSH2 0xFE JUMPI DUP1 PUSH4 0x1EA736E0 EQ PUSH2 0x13B JUMPI JUMPDEST PUSH1 0x0 DUP1 REVERT JUMPDEST PUSH2 0xFC PUSH1 0x4 DUP1 CALLDATASIZE SUB DUP2 ADD SWAP1 PUSH2 0xF7 SWAP2 SWAP1 PUSH2 0xFC3 JUMP JUMPDEST PUSH2 0x327 JUMP JUMPDEST STOP JUMPDEST CALLVALUE DUP1 ISZERO PUSH2 0x10A JUMPI PUSH1 0x0 DUP1 REVERT JUMPDEST POP PUSH2 0x125 PUSH1 0x4 DUP1 CALLDATASIZE SUB DUP2 ADD SWAP1 PUSH2 0x120 SWAP2 SWAP1 PUSH2 0x104E JUMP JUMPDEST PUSH2 0x5FB JUMP JUMPDEST PUSH1 0x40 MLOAD PUSH2 0x132 SWAP2 SWAP1 PUSH2 0x1096 JUMP JUMPDEST PUSH1 0x40 MLOAD DUP1 SWAP2 SUB SWAP1 RETURN JUMPDEST CALLVALUE DUP1 ISZERO PUSH2 0x147 JUMPI PUSH1 0x0 DUP1 REVERT JUMPDEST POP PUSH2 0x150 PUSH2 0x61B JUMP JUMPDEST PUSH1 0x40 MLOAD PUSH2 0x15D SWAP2 SWAP1 PUSH2 0x10C0 JUMP JUMPDEST PUSH1 0x40 MLOAD DUP1 SWAP2 SUB SWAP1 RETURN JUMPDEST CALLVALUE DUP1 ISZERO PUSH2 0x172 JUMPI PUSH1 0x0 DUP1 REVERT JUMPDEST POP PUSH2 0x17B PUSH2 0x621 JUMP JUMPDEST PUSH1 0x40 MLOAD PUSH2 0x188 SWAP2 SWAP1 PUSH2 0x116B JUMP JUMPDEST PUSH1 0x40 MLOAD DUP1 SWAP2 SUB SWAP1 RETURN JUMPDEST CALLVALUE DUP1 ISZERO PUSH2 0x19D JUMPI PUSH1 0x0 DUP1 REVERT JUMPDEST POP PUSH2 0x1A6 PUSH2 0x65E JUMP JUMPDEST STOP JUMPDEST CALLVALUE DUP1 ISZERO PUSH2 0x1B4 JUMPI PUSH1 0x0 DUP1 REVERT JUMPDEST POP PUSH2 0x1BD PUSH2 0x795 JUMP JUMPDEST PUSH1 0x40 MLOAD PUSH2 0x1CA SWAP2 SWAP1 PUSH2 0x116B JUMP JUMPDEST PUSH1 0x40 MLOAD DUP1 SWAP2 SUB SWAP1 RETURN JUMPDEST CALLVALUE DUP1 ISZERO PUSH2 0x1DF JUMPI PUSH1 0x0 DUP1 REVERT JUMPDEST POP PUSH2 0x1FA PUSH1 0x4 DUP1 CALLDATASIZE SUB DUP2 ADD SWAP1 PUSH2 0x1F5 SWAP2 SWAP1 PUSH2 0xFC3 JUMP JUMPDEST PUSH2 0x823 JUMP JUMPDEST PUSH1 0x40 MLOAD PUSH2 0x208 SWAP3 SWAP2 SWAP1 PUSH2 0x118D JUMP JUMPDEST PUSH1 0x40 MLOAD DUP1 SWAP2 SUB SWAP1 RETURN JUMPDEST CALLVALUE DUP1 ISZERO PUSH2 0x21D JUMPI PUSH1 0x0 DUP1 REVERT JUMPDEST POP PUSH2 0x226 PUSH2 0x8D5 JUMP JUMPDEST PUSH1 0x40 MLOAD PUSH2 0x234 SWAP3 SWAP2 SWAP1 PUSH2 0x1387 JUMP JUMPDEST PUSH1 0x40 MLOAD DUP1 SWAP2 SUB SWAP1 RETURN JUMPDEST CALLVALUE DUP1 ISZERO PUSH2 0x249 JUMPI PUSH1 0x0 DUP1 REVERT JUMPDEST POP PUSH2 0x252 PUSH2 0xA9C JUMP JUMPDEST PUSH1 0x40 MLOAD PUSH2 0x25F SWAP2 SWAP1 PUSH2 0x1096 JUMP JUMPDEST PUSH1 0x40 MLOAD DUP1 SWAP2 SUB SWAP1 RETURN JUMPDEST CALLVALUE DUP1 ISZERO PUSH2 0x274 JUMPI PUSH1 0x0 DUP1 REVERT JUMPDEST POP PUSH2 0x28F PUSH1 0x4 DUP1 CALLDATASIZE SUB DUP2 ADD SWAP1 PUSH2 0x28A SWAP2 SWAP1 PUSH2 0x15D9 JUMP JUMPDEST PUSH2 0xAAF JUMP JUMPDEST STOP JUMPDEST CALLVALUE DUP1 ISZERO PUSH2 0x29D JUMPI PUSH1 0x0 DUP1 REVERT JUMPDEST POP PUSH2 0x2A6 PUSH2 0xC60 JUMP JUMPDEST PUSH1 0x40 MLOAD PUSH2 0x2B3 SWAP2 SWAP1 PUSH2 0x1673 JUMP JUMPDEST PUSH1 0x40 MLOAD DUP1 SWAP2 SUB SWAP1 RETURN JUMPDEST CALLVALUE DUP1 ISZERO PUSH2 0x2C8 JUMPI PUSH1 0x0 DUP1 REVERT JUMPDEST POP PUSH2 0x2D1 PUSH2 0xC84 JUMP JUMPDEST STOP JUMPDEST CALLVALUE DUP1 ISZERO PUSH2 0x2DF JUMPI PUSH1 0x0 DUP1 REVERT JUMPDEST POP PUSH2 0x2E8 PUSH2 0xDAA JUMP JUMPDEST STOP JUMPDEST CALLVALUE DUP1 ISZERO PUSH2 0x2F6 JUMPI PUSH1 0x0 DUP1 REVERT JUMPDEST POP PUSH2 0x311 PUSH1 0x4 DUP1 CALLDATASIZE SUB DUP2 ADD SWAP1 PUSH2 0x30C SWAP2 SWAP1 PUSH2 0xFC3 JUMP JUMPDEST PUSH2 0xEFC JUMP JUMPDEST PUSH1 0x40 MLOAD PUSH2 0x31E SWAP2 SWAP1 PUSH2 0x1673 JUMP JUMPDEST PUSH1 0x40 MLOAD DUP1 SWAP2 SUB SWAP1 RETURN JUMPDEST PUSH1 0xD PUSH1 0x0 SWAP1 SLOAD SWAP1 PUSH2 0x100 EXP SWAP1 DIV PUSH1 0xFF AND PUSH2 0x376 JUMPI PUSH1 0x40 MLOAD PUSH32 0x8C379A000000000000000000000000000000000000000000000000000000000 DUP2 MSTORE PUSH1 0x4 ADD PUSH2 0x36D SWAP1 PUSH2 0x1700 JUMP JUMPDEST PUSH1 0x40 MLOAD DUP1 SWAP2 SUB SWAP1 REVERT JUMPDEST PUSH1 0x5 DUP2 LT PUSH2 0x3B9 JUMPI PUSH1 0x40 MLOAD PUSH32 0x8C379A000000000000000000000000000000000000000000000000000000000 DUP2 MSTORE PUSH1 0x4 ADD PUSH2 0x3B0 SWAP1 PUSH2 0x176C JUMP JUMPDEST PUSH1 0x40 MLOAD DUP1 SWAP2 SUB SWAP1 REVERT JUMPDEST PUSH7 0x2386F26FC10000 CALLVALUE EQ PUSH2 0x402 JUMPI PUSH1 0x40 MLOAD PUSH32 0x8C379A000000000000000000000000000000000000000000000000000000000 DUP2 MSTORE PUSH1 0x4 ADD PUSH2 0x3F9 SWAP1 PUSH2 0x17D8 JUMP JUMPDEST PUSH1 0x40 MLOAD DUP1 SWAP2 SUB SWAP1 REVERT JUMPDEST PUSH1 0xC SLOAD TIMESTAMP LT PUSH2 0x446 JUMPI PUSH1 0x40 MLOAD PUSH32 0x8C379A000000000000000000000000000000000000000000000000000000000 DUP2 MSTORE PUSH1 0x4 ADD PUSH2 0x43D SWAP1 PUSH2 0x1844 JUMP JUMPDEST PUSH1 0x40 MLOAD DUP1 SWAP2 SUB SWAP1 REVERT JUMPDEST PUSH1 0xE PUSH1 0x0 CALLER PUSH20 0xFFFFFFFFFFFFFFFFFFFFFFFFFFFFFFFFFFFFFFFF AND PUSH20 0xFFFFFFFFFFFFFFFFFFFFFFFFFFFFFFFFFFFFFFFF AND DUP2 MSTORE PUSH1 0x20 ADD SWAP1 DUP2 MSTORE PUSH1 0x20 ADD PUSH1 0x0 KECCAK256 PUSH1 0x0 SWAP1 SLOAD SWAP1 PUSH2 0x100 EXP SWAP1 DIV PUSH1 0xFF AND ISZERO PUSH2 0x4D3 JUMPI PUSH1 0x40 MLOAD PUSH32 0x8C379A000000000000000000000000000000000000000000000000000000000 DUP2 MSTORE PUSH1 0x4 ADD PUSH2 0x4CA SWAP1 PUSH2 0x18B0 JUMP JUMPDEST PUSH1 0x40 MLOAD DUP1 SWAP2 SUB SWAP1 REVERT JUMPDEST PUSH1 0x1 PUSH1 0x2 DUP3 PUSH1 0x5 DUP2 LT PUSH2 0x4E9 JUMPI PUSH2 0x4E8 PUSH2 0x18D0 JUMP JUMPDEST JUMPDEST PUSH1 0x2 MUL ADD PUSH1 0x1 ADD PUSH1 0x0 DUP3 DUP3 SLOAD PUSH2 0x4FF SWAP2 SWAP1 PUSH2 0x192E JUMP JUMPDEST SWAP3 POP POP DUP2 SWAP1 SSTORE POP PUSH1 0x1 PUSH1 0xE PUSH1 0x0 CALLER PUSH20 0xFFFFFFFFFFFFFFFFFFFFFFFFFFFFFFFFFFFFFFFF AND PUSH20 0xFFFFFFFFFFFFFFFFFFFFFFFFFFFFFFFFFFFFFFFF AND DUP2 MSTORE PUSH1 0x20 ADD SWAP1 DUP2 MSTORE PUSH1 0x20 ADD PUSH1 0x0 KECCAK256 PUSH1 0x0 PUSH2 0x100 EXP DUP2 SLOAD DUP2 PUSH1 0xFF MUL NOT AND SWAP1 DUP4 ISZERO ISZERO MUL OR SWAP1 SSTORE POP PUSH1 0xF CALLER SWAP1 DUP1 PUSH1 0x1 DUP2 SLOAD ADD DUP1 DUP3 SSTORE DUP1 SWAP2 POP POP PUSH1 0x1 SWAP1 SUB SWAP1 PUSH1 0x0 MSTORE PUSH1 0x20 PUSH1 0x0 KECCAK256 ADD PUSH1 0x0 SWAP1 SWAP2 SWAP1 SWAP2 SWAP1 SWAP2 PUSH2 0x100 EXP DUP2 SLOAD DUP2 PUSH20 0xFFFFFFFFFFFFFFFFFFFFFFFFFFFFFFFFFFFFFFFF MUL NOT AND SWAP1 DUP4 PUSH20 0xFFFFFFFFFFFFFFFFFFFFFFFFFFFFFFFFFFFFFFFF AND MUL OR SWAP1 SSTORE POP PUSH32 0x764994CEC44D59DFEC5A64A5B762B51EA62C652C4E63F53DA1BA0835E5C8744 DUP2 PUSH1 0x40 MLOAD PUSH2 0x5F0 SWAP2 SWAP1 PUSH2 0x10C0 JUMP JUMPDEST PUSH1 0x40 MLOAD DUP1 SWAP2 SUB SWAP1 LOG1 POP JUMP JUMPDEST PUSH1 0xE PUSH1 0x20 MSTORE DUP1 PUSH1 0x0 MSTORE PUSH1 0x40 PUSH1 0x0 KECCAK256 PUSH1 0x0 SWAP2 POP SLOAD SWAP1 PUSH2 0x100 EXP SWAP1 DIV PUSH1 0xFF AND DUP2 JUMP JUMPDEST PUSH1 0xC SLOAD DUP2 JUMP JUMPDEST PUSH1 0x60 PUSH1 0x40 MLOAD DUP1 PUSH1 0x40 ADD PUSH1 0x40 MSTORE DUP1 PUSH1 0x6 DUP2 MSTORE PUSH1 0x20 ADD PUSH32 0x5075626C69630000000000000000000000000000000000000000000000000000 DUP2 MSTORE POP SWAP1 POP SWAP1 JUMP JUMPDEST PUSH1 0x0 DUP1 SLOAD SWAP1 PUSH2 0x100 EXP SWAP1 DIV PUSH20 0xFFFFFFFFFFFFFFFFFFFFFFFFFFFFFFFFFFFFFFFF AND PUSH20 0xFFFFFFFFFFFFFFFFFFFFFFFFFFFFFFFFFFFFFFFF AND CALLER PUSH20 0xFFFFFFFFFFFFFFFFFFFFFFFFFFFFFFFFFFFFFFFF AND EQ PUSH2 0x6EC JUMPI PUSH1 0x40 MLOAD PUSH32 0x8C379A000000000000000000000000000000000000000000000000000000000 DUP2 MSTORE PUSH1 0x4 ADD PUSH2 0x6E3 SWAP1 PUSH2 0x19D4 JUMP JUMPDEST PUSH1 0x40 MLOAD DUP1 SWAP2 SUB SWAP1 REVERT JUMPDEST PUSH1 0xD PUSH1 0x0 SWAP1 SLOAD SWAP1 PUSH2 0x100 EXP SWAP1 DIV PUSH1 0xFF AND ISZERO PUSH2 0x73C JUMPI PUSH1 0x40 MLOAD PUSH32 0x8C379A000000000000000000000000000000000000000000000000000000000 DUP2 MSTORE PUSH1 0x4 ADD PUSH2 0x733 SWAP1 PUSH2 0x1A66 JUMP JUMPDEST PUSH1 0x40 MLOAD DUP1 SWAP2 SUB SWAP1 REVERT JUMPDEST PUSH1 0x0 SELFBALANCE SWAP1 POP PUSH1 0x0 DUP2 GT ISZERO PUSH2 0x792 JUMPI CALLER PUSH20 0xFFFFFFFFFFFFFFFFFFFFFFFFFFFFFFFFFFFFFFFF AND PUSH2 0x8FC DUP3 SWAP1 DUP2 ISZERO MUL SWAP1 PUSH1 0x40 MLOAD PUSH1 0x0 PUSH1 0x40 MLOAD DUP1 DUP4 SUB DUP2 DUP6 DUP9 DUP9 CALL SWAP4 POP POP POP POP ISZERO DUP1 ISZERO PUSH2 0x790 JUMPI RETURNDATASIZE PUSH1 0x0 DUP1 RETURNDATACOPY RETURNDATASIZE PUSH1 0x0 REVERT JUMPDEST POP JUMPDEST POP JUMP JUMPDEST PUSH1 0x1 DUP1 SLOAD PUSH2 0x7A2 SWAP1 PUSH2 0x1AB5 JUMP JUMPDEST DUP1 PUSH1 0x1F ADD PUSH1 0x20 DUP1 SWAP2 DIV MUL PUSH1 0x20 ADD PUSH1 0x40 MLOAD SWAP1 DUP2 ADD PUSH1 0x40 MSTORE DUP1 SWAP3 SWAP2 SWAP1 DUP2 DUP2 MSTORE PUSH1 0x20 ADD DUP3 DUP1 SLOAD PUSH2 0x7CE SWAP1 PUSH2 0x1AB5 JUMP JUMPDEST DUP1 ISZERO PUSH2 0x81B JUMPI DUP1 PUSH1 0x1F LT PUSH2 0x7F0 JUMPI PUSH2 0x100 DUP1 DUP4 SLOAD DIV MUL DUP4 MSTORE SWAP2 PUSH1 0x20 ADD SWAP2 PUSH2 0x81B JUMP JUMPDEST DUP3 ADD SWAP2 SWAP1 PUSH1 0x0 MSTORE PUSH1 0x20 PUSH1 0x0 KECCAK256 SWAP1 JUMPDEST DUP2 SLOAD DUP2 MSTORE SWAP1 PUSH1 0x1 ADD SWAP1 PUSH1 0x20 ADD DUP1 DUP4 GT PUSH2 0x7FE JUMPI DUP3 SWAP1 SUB PUSH1 0x1F AND DUP3 ADD SWAP2 JUMPDEST POP POP POP POP POP DUP2 JUMP JUMPDEST PUSH1 0x2 DUP2 PUSH1 0x5 DUP2 LT PUSH2 0x833 JUMPI PUSH1 0x0 DUP1 REVERT JUMPDEST PUSH1 0x2 MUL ADD PUSH1 0x0 SWAP2 POP SWAP1 POP DUP1 PUSH1 0x0 ADD DUP1 SLOAD PUSH2 0x84C SWAP1 PUSH2 0x1AB5 JUMP JUMPDEST DUP1 PUSH1 0x1F ADD PUSH1 0x20 DUP1 SWAP2 DIV MUL PUSH1 0x20 ADD PUSH1 0x40 MLOAD SWAP1 DUP2 ADD PUSH1 0x40 MSTORE DUP1 SWAP3 SWAP2 SWAP1 DUP2 DUP2 MSTORE PUSH1 0x20 ADD DUP3 DUP1 SLOAD PUSH2 0x878 SWAP1 PUSH2 0x1AB5 JUMP JUMPDEST DUP1 ISZERO PUSH2 0x8C5 JUMPI DUP1 PUSH1 0x1F LT PUSH2 0x89A JUMPI PUSH2 0x100 DUP1 DUP4 SLOAD DIV MUL DUP4 MSTORE SWAP2 PUSH1 0x20 ADD SWAP2 PUSH2 0x8C5 JUMP JUMPDEST DUP3 ADD SWAP2 SWAP1 PUSH1 0x0 MSTORE PUSH1 0x20 PUSH1 0x0 KECCAK256 SWAP1 JUMPDEST DUP2 SLOAD DUP2 MSTORE SWAP1 PUSH1 0x1 ADD SWAP1 PUSH1 0x20 ADD DUP1 DUP4 GT PUSH2 0x8A8 JUMPI DUP3 SWAP1 SUB PUSH1 0x1F AND DUP3 ADD SWAP2 JUMPDEST POP POP POP POP POP SWAP1 DUP1 PUSH1 0x1 ADD SLOAD SWAP1 POP DUP3 JUMP JUMPDEST PUSH1 0x60 DUP1 PUSH1 0x0 PUSH1 0x5 PUSH8 0xFFFFFFFFFFFFFFFF DUP2 GT ISZERO PUSH2 0x8F5 JUMPI PUSH2 0x8F4 PUSH2 0x13C8 JUMP JUMPDEST JUMPDEST PUSH1 0x40 MLOAD SWAP1 DUP1 DUP3 MSTORE DUP1 PUSH1 0x20 MUL PUSH1 0x20 ADD DUP3 ADD PUSH1 0x40 MSTORE DUP1 ISZERO PUSH2 0x928 JUMPI DUP2 PUSH1 0x20 ADD JUMPDEST PUSH1 0x60 DUP2 MSTORE PUSH1 0x20 ADD SWAP1 PUSH1 0x1 SWAP1 SUB SWAP1 DUP2 PUSH2 0x913 JUMPI SWAP1 POP JUMPDEST POP SWAP1 POP PUSH1 0x0 PUSH1 0x5 PUSH8 0xFFFFFFFFFFFFFFFF DUP2 GT ISZERO PUSH2 0x948 JUMPI PUSH2 0x947 PUSH2 0x13C8 JUMP JUMPDEST JUMPDEST PUSH1 0x40 MLOAD SWAP1 DUP1 DUP3 MSTORE DUP1 PUSH1 0x20 MUL PUSH1 0x20 ADD DUP3 ADD PUSH1 0x40 MSTORE DUP1 ISZERO PUSH2 0x976 JUMPI DUP2 PUSH1 0x20 ADD PUSH1 0x20 DUP3 MUL DUP1 CALLDATASIZE DUP4 CALLDATACOPY DUP1 DUP3 ADD SWAP2 POP POP SWAP1 POP JUMPDEST POP SWAP1 POP PUSH1 0x0 JUMPDEST PUSH1 0x5 DUP2 LT ISZERO PUSH2 0xA8F JUMPI PUSH1 0x2 DUP2 PUSH1 0x5 DUP2 LT PUSH2 0x999 JUMPI PUSH2 0x998 PUSH2 0x18D0 JUMP JUMPDEST JUMPDEST PUSH1 0x2 MUL ADD PUSH1 0x0 ADD DUP1 SLOAD PUSH2 0x9AB SWAP1 PUSH2 0x1AB5 JUMP JUMPDEST DUP1 PUSH1 0x1F ADD PUSH1 0x20 DUP1 SWAP2 DIV MUL PUSH1 0x20 ADD PUSH1 0x40 MLOAD SWAP1 DUP2 ADD PUSH1 0x40 MSTORE DUP1 SWAP3 SWAP2 SWAP1 DUP2 DUP2 MSTORE PUSH1 0x20 ADD DUP3 DUP1 SLOAD PUSH2 0x9D7 SWAP1 PUSH2 0x1AB5 JUMP JUMPDEST DUP1 ISZERO PUSH2 0xA24 JUMPI DUP1 PUSH1 0x1F LT PUSH2 0x9F9 JUMPI PUSH2 0x100 DUP1 DUP4 SLOAD DIV MUL DUP4 MSTORE SWAP2 PUSH1 0x20 ADD SWAP2 PUSH2 0xA24 JUMP JUMPDEST DUP3 ADD SWAP2 SWAP1 PUSH1 0x0 MSTORE PUSH1 0x20 PUSH1 0x0 KECCAK256 SWAP1 JUMPDEST DUP2 SLOAD DUP2 MSTORE SWAP1 PUSH1 0x1 ADD SWAP1 PUSH1 0x20 ADD DUP1 DUP4 GT PUSH2 0xA07 JUMPI DUP3 SWAP1 SUB PUSH1 0x1F AND DUP3 ADD SWAP2 JUMPDEST POP POP POP POP POP DUP4 DUP3 DUP2 MLOAD DUP2 LT PUSH2 0xA3C JUMPI PUSH2 0xA3B PUSH2 0x18D0 JUMP JUMPDEST JUMPDEST PUSH1 0x20 MUL PUSH1 0x20 ADD ADD DUP2 SWAP1 MSTORE POP PUSH1 0x2 DUP2 PUSH1 0x5 DUP2 LT PUSH2 0xA5B JUMPI PUSH2 0xA5A PUSH2 0x18D0 JUMP JUMPDEST JUMPDEST PUSH1 0x2 MUL ADD PUSH1 0x1 ADD SLOAD DUP3 DUP3 DUP2 MLOAD DUP2 LT PUSH2 0xA76 JUMPI PUSH2 0xA75 PUSH2 0x18D0 JUMP JUMPDEST JUMPDEST PUSH1 0x20 MUL PUSH1 0x20 ADD ADD DUP2 DUP2 MSTORE POP POP DUP1 DUP1 PUSH1 0x1 ADD SWAP2 POP POP PUSH2 0x97C JUMP JUMPDEST POP DUP2 DUP2 SWAP4 POP SWAP4 POP POP POP SWAP1 SWAP2 JUMP JUMPDEST PUSH1 0xD PUSH1 0x0 SWAP1 SLOAD SWAP1 PUSH2 0x100 EXP SWAP1 DIV PUSH1 0xFF AND DUP2 JUMP JUMPDEST PUSH1 0x0 DUP1 SLOAD SWAP1 PUSH2 0x100 EXP SWAP1 DIV PUSH20 0xFFFFFFFFFFFFFFFFFFFFFFFFFFFFFFFFFFFFFFFF AND PUSH20 0xFFFFFFFFFFFFFFFFFFFFFFFFFFFFFFFFFFFFFFFF AND CALLER PUSH20 0xFFFFFFFFFFFFFFFFFFFFFFFFFFFFFFFFFFFFFFFF AND EQ PUSH2 0xB3D JUMPI PUSH1 0x40 MLOAD PUSH32 0x8C379A000000000000000000000000000000000000000000000000000000000 DUP2 MSTORE PUSH1 0x4 ADD PUSH2 0xB34 SWAP1 PUSH2 0x1B58 JUMP JUMPDEST PUSH1 0x40 MLOAD DUP1 SWAP2 SUB SWAP1 REVERT JUMPDEST PUSH1 0xD PUSH1 0x0 SWAP1 SLOAD SWAP1 PUSH2 0x100 EXP SWAP1 DIV PUSH1 0xFF AND ISZERO PUSH2 0xB8D JUMPI PUSH1 0x40 MLOAD PUSH32 0x8C379A000000000000000000000000000000000000000000000000000000000 DUP2 MSTORE PUSH1 0x4 ADD PUSH2 0xB84 SWAP1 PUSH2 0x1BC4 JUMP JUMPDEST PUSH1 0x40 MLOAD DUP1 SWAP2 SUB SWAP1 REVERT JUMPDEST DUP3 PUSH1 0x1 SWAP1 DUP2 PUSH2 0xB9C SWAP2 SWAP1 PUSH2 0x1D90 JUMP JUMPDEST POP PUSH1 0x3C DUP2 PUSH2 0xBAA SWAP2 SWAP1 PUSH2 0x1E62 JUMP JUMPDEST TIMESTAMP PUSH2 0xBB5 SWAP2 SWAP1 PUSH2 0x192E JUMP JUMPDEST PUSH1 0xC DUP2 SWAP1 SSTORE POP PUSH1 0x0 JUMPDEST DUP3 MLOAD DUP2 LT ISZERO PUSH2 0xC3F JUMPI PUSH1 0x40 MLOAD DUP1 PUSH1 0x40 ADD PUSH1 0x40 MSTORE DUP1 DUP5 DUP4 DUP2 MLOAD DUP2 LT PUSH2 0xBE5 JUMPI PUSH2 0xBE4 PUSH2 0x18D0 JUMP JUMPDEST JUMPDEST PUSH1 0x20 MUL PUSH1 0x20 ADD ADD MLOAD DUP2 MSTORE PUSH1 0x20 ADD PUSH1 0x0 DUP2 MSTORE POP PUSH1 0x2 DUP3 PUSH1 0x5 DUP2 LT PUSH2 0xC0B JUMPI PUSH2 0xC0A PUSH2 0x18D0 JUMP JUMPDEST JUMPDEST PUSH1 0x2 MUL ADD PUSH1 0x0 DUP3 ADD MLOAD DUP2 PUSH1 0x0 ADD SWAP1 DUP2 PUSH2 0xC24 SWAP2 SWAP1 PUSH2 0x1D90 JUMP JUMPDEST POP PUSH1 0x20 DUP3 ADD MLOAD DUP2 PUSH1 0x1 ADD SSTORE SWAP1 POP POP DUP1 DUP1 PUSH1 0x1 ADD SWAP2 POP POP PUSH2 0xBBE JUMP JUMPDEST POP PUSH1 0x1 PUSH1 0xD PUSH1 0x0 PUSH2 0x100 EXP DUP2 SLOAD DUP2 PUSH1 0xFF MUL NOT AND SWAP1 DUP4 ISZERO ISZERO MUL OR SWAP1 SSTORE POP POP POP POP JUMP JUMPDEST PUSH1 0x0 DUP1 SLOAD SWAP1 PUSH2 0x100 EXP SWAP1 DIV PUSH20 0xFFFFFFFFFFFFFFFFFFFFFFFFFFFFFFFFFFFFFFFF AND DUP2 JUMP JUMPDEST PUSH1 0x0 DUP1 SLOAD SWAP1 PUSH2 0x100 EXP SWAP1 DIV PUSH20 0xFFFFFFFFFFFFFFFFFFFFFFFFFFFFFFFFFFFFFFFF AND PUSH20 0xFFFFFFFFFFFFFFFFFFFFFFFFFFFFFFFFFFFFFFFF AND CALLER PUSH20 0xFFFFFFFFFFFFFFFFFFFFFFFFFFFFFFFFFFFFFFFF AND EQ PUSH2 0xD12 JUMPI PUSH1 0x40 MLOAD PUSH32 0x8C379A000000000000000000000000000000000000000000000000000000000 DUP2 MSTORE PUSH1 0x4 ADD PUSH2 0xD09 SWAP1 PUSH2 0x1F16 JUMP JUMPDEST PUSH1 0x40 MLOAD DUP1 SWAP2 SUB SWAP1 REVERT JUMPDEST PUSH1 0xD PUSH1 0x0 SWAP1 SLOAD SWAP1 PUSH2 0x100 EXP SWAP1 DIV PUSH1 0xFF AND PUSH2 0xD61 JUMPI PUSH1 0x40 MLOAD PUSH32 0x8C379A000000000000000000000000000000000000000000000000000000000 DUP2 MSTORE PUSH1 0x4 ADD PUSH2 0xD58 SWAP1 PUSH2 0x1F82 JUMP JUMPDEST PUSH1 0x40 MLOAD DUP1 SWAP2 SUB SWAP1 REVERT JUMPDEST PUSH1 0x0 PUSH1 0xD PUSH1 0x0 PUSH2 0x100 EXP DUP2 SLOAD DUP2 PUSH1 0xFF MUL NOT AND SWAP1 DUP4 ISZERO ISZERO MUL OR SWAP1 SSTORE POP PUSH32 0x7A19ED057DB79E3C2FA0B97A54B43BEF4FCE74B31BB6C01AF514B9A18A7F70AB PUSH1 0x40 MLOAD PUSH1 0x40 MLOAD DUP1 SWAP2 SUB SWAP1 LOG1 JUMP JUMPDEST PUSH1 0x0 DUP1 SLOAD SWAP1 PUSH2 0x100 EXP SWAP1 DIV PUSH20 0xFFFFFFFFFFFFFFFFFFFFFFFFFFFFFFFFFFFFFFFF AND PUSH20 0xFFFFFFFFFFFFFFFFFFFFFFFFFFFFFFFFFFFFFFFF AND CALLER PUSH20 0xFFFFFFFFFFFFFFFFFFFFFFFFFFFFFFFFFFFFFFFF AND EQ PUSH2 0xE38 JUMPI PUSH1 0x40 MLOAD PUSH32 0x8C379A000000000000000000000000000000000000000000000000000000000 DUP2 MSTORE PUSH1 0x4 ADD PUSH2 0xE2F SWAP1 PUSH2 0x2014 JUMP JUMPDEST PUSH1 0x40 MLOAD DUP1 SWAP2 SUB SWAP1 REVERT JUMPDEST PUSH1 0x0 JUMPDEST PUSH1 0xF DUP1 SLOAD SWAP1 POP DUP2 LT ISZERO PUSH2 0xEEB JUMPI PUSH1 0x0 PUSH1 0xE PUSH1 0x0 PUSH1 0xF DUP5 DUP2 SLOAD DUP2 LT PUSH2 0xE62 JUMPI PUSH2 0xE61 PUSH2 0x18D0 JUMP JUMPDEST JUMPDEST SWAP1 PUSH1 0x0 MSTORE PUSH1 0x20 PUSH1 0x0 KECCAK256 ADD PUSH1 0x0 SWAP1 SLOAD SWAP1 PUSH2 0x100 EXP SWAP1 DIV PUSH20 0xFFFFFFFFFFFFFFFFFFFFFFFFFFFFFFFFFFFFFFFF AND PUSH20 0xFFFFFFFFFFFFFFFFFFFFFFFFFFFFFFFFFFFFFFFF AND PUSH20 0xFFFFFFFFFFFFFFFFFFFFFFFFFFFFFFFFFFFFFFFF AND DUP2 MSTORE PUSH1 0x20 ADD SWAP1 DUP2 MSTORE PUSH1 0x20 ADD PUSH1 0x0 KECCAK256 PUSH1 0x0 PUSH2 0x100 EXP DUP2 SLOAD DUP2 PUSH1 0xFF MUL NOT AND SWAP1 DUP4 ISZERO ISZERO MUL OR SWAP1 SSTORE POP DUP1 DUP1 PUSH1 0x1 ADD SWAP2 POP POP PUSH2 0xE3B JUMP JUMPDEST POP PUSH1 0xF PUSH1 0x0 PUSH2 0xEFA SWAP2 SWAP1 PUSH2 0xF3B JUMP JUMPDEST JUMP JUMPDEST PUSH1 0xF DUP2 DUP2 SLOAD DUP2 LT PUSH2 0xF0C JUMPI PUSH1 0x0 DUP1 REVERT JUMPDEST SWAP1 PUSH1 0x0 MSTORE PUSH1 0x20 PUSH1 0x0 KECCAK256 ADD PUSH1 0x0 SWAP2 POP SLOAD SWAP1 PUSH2 0x100 EXP SWAP1 DIV PUSH20 0xFFFFFFFFFFFFFFFFFFFFFFFFFFFFFFFFFFFFFFFF AND DUP2 JUMP JUMPDEST POP DUP1 SLOAD PUSH1 0x0 DUP3 SSTORE SWAP1 PUSH1 0x0 MSTORE PUSH1 0x20 PUSH1 0x0 KECCAK256 SWAP1 DUP2 ADD SWAP1 PUSH2 0xF59 SWAP2 SWAP1 PUSH2 0xF5C JUMP JUMPDEST POP JUMP JUMPDEST JUMPDEST DUP1 DUP3 GT ISZERO PUSH2 0xF75 JUMPI PUSH1 0x0 DUP2 PUSH1 0x0 SWAP1 SSTORE POP PUSH1 0x1 ADD PUSH2 0xF5D JUMP JUMPDEST POP SWAP1 JUMP JUMPDEST PUSH1 0x0 PUSH1 0x40 MLOAD SWAP1 POP SWAP1 JUMP JUMPDEST PUSH1 0x0 DUP1 REVERT JUMPDEST PUSH1 0x0 DUP1 REVERT JUMPDEST PUSH1 0x0 DUP2 SWAP1 POP SWAP2 SWAP1 POP JUMP JUMPDEST PUSH2 0xFA0 DUP2 PUSH2 0xF8D JUMP JUMPDEST DUP2 EQ PUSH2 0xFAB JUMPI PUSH1 0x0 DUP1 REVERT JUMPDEST POP JUMP JUMPDEST PUSH1 0x0 DUP2 CALLDATALOAD SWAP1 POP PUSH2 0xFBD DUP2 PUSH2 0xF97 JUMP JUMPDEST SWAP3 SWAP2 POP POP JUMP JUMPDEST PUSH1 0x0 PUSH1 0x20 DUP3 DUP5 SUB SLT ISZERO PUSH2 0xFD9 JUMPI PUSH2 0xFD8 PUSH2 0xF83 JUMP JUMPDEST JUMPDEST PUSH1 0x0 PUSH2 0xFE7 DUP5 DUP3 DUP6 ADD PUSH2 0xFAE JUMP JUMPDEST SWAP2 POP POP SWAP3 SWAP2 POP POP JUMP JUMPDEST PUSH1 0x0 PUSH20 0xFFFFFFFFFFFFFFFFFFFFFFFFFFFFFFFFFFFFFFFF DUP3 AND SWAP1 POP SWAP2 SWAP1 POP JUMP JUMPDEST PUSH1 0x0 PUSH2 0x101B DUP3 PUSH2 0xFF0 JUMP JUMPDEST SWAP1 POP SWAP2 SWAP1 POP JUMP JUMPDEST PUSH2 0x102B DUP2 PUSH2 0x1010 JUMP JUMPDEST DUP2 EQ PUSH2 0x1036 JUMPI PUSH1 0x0 DUP1 REVERT JUMPDEST POP JUMP JUMPDEST PUSH1 0x0 DUP2 CALLDATALOAD SWAP1 POP PUSH2 0x1048 DUP2 PUSH2 0x1022 JUMP JUMPDEST SWAP3 SWAP2 POP POP JUMP JUMPDEST PUSH1 0x0 PUSH1 0x20 DUP3 DUP5 SUB SLT ISZERO PUSH2 0x1064 JUMPI PUSH2 0x1063 PUSH2 0xF83 JUMP JUMPDEST JUMPDEST PUSH1 0x0 PUSH2 0x1072 DUP5 DUP3 DUP6 ADD PUSH2 0x1039 JUMP JUMPDEST SWAP2 POP POP SWAP3 SWAP2 POP POP JUMP JUMPDEST PUSH1 0x0 DUP2 ISZERO ISZERO SWAP1 POP SWAP2 SWAP1 POP JUMP JUMPDEST PUSH2 0x1090 DUP2 PUSH2 0x107B JUMP JUMPDEST DUP3 MSTORE POP POP JUMP JUMPDEST PUSH1 0x0 PUSH1 0x20 DUP3 ADD SWAP1 POP PUSH2 0x10AB PUSH1 0x0 DUP4 ADD DUP5 PUSH2 0x1087 JUMP JUMPDEST SWAP3 SWAP2 POP POP JUMP JUMPDEST PUSH2 0x10BA DUP2 PUSH2 0xF8D JUMP JUMPDEST DUP3 MSTORE POP POP JUMP JUMPDEST PUSH1 0x0 PUSH1 0x20 DUP3 ADD SWAP1 POP PUSH2 0x10D5 PUSH1 0x0 DUP4 ADD DUP5 PUSH2 0x10B1 JUMP JUMPDEST SWAP3 SWAP2 POP POP JUMP JUMPDEST PUSH1 0x0 DUP2 MLOAD SWAP1 POP SWAP2 SWAP1 POP JUMP JUMPDEST PUSH1 0x0 DUP3 DUP3 MSTORE PUSH1 0x20 DUP3 ADD SWAP1 POP SWAP3 SWAP2 POP POP JUMP JUMPDEST PUSH1 0x0 JUMPDEST DUP4 DUP2 LT ISZERO PUSH2 0x1115 JUMPI DUP1 DUP3 ADD MLOAD DUP2 DUP5 ADD MSTORE PUSH1 0x20 DUP2 ADD SWAP1 POP PUSH2 0x10FA JUMP JUMPDEST PUSH1 0x0 DUP5 DUP5 ADD MSTORE POP POP POP POP JUMP JUMPDEST PUSH1 0x0 PUSH1 0x1F NOT PUSH1 0x1F DUP4 ADD AND SWAP1 POP SWAP2 SWAP1 POP JUMP JUMPDEST PUSH1 0x0 PUSH2 0x113D DUP3 PUSH2 0x10DB JUMP JUMPDEST PUSH2 0x1147 DUP2 DUP6 PUSH2 0x10E6 JUMP JUMPDEST SWAP4 POP PUSH2 0x1157 DUP2 DUP6 PUSH1 0x20 DUP7 ADD PUSH2 0x10F7 JUMP JUMPDEST PUSH2 0x1160 DUP2 PUSH2 0x1121 JUMP JUMPDEST DUP5 ADD SWAP2 POP POP SWAP3 SWAP2 POP POP JUMP JUMPDEST PUSH1 0x0 PUSH1 0x20 DUP3 ADD SWAP1 POP DUP2 DUP2 SUB PUSH1 0x0 DUP4 ADD MSTORE PUSH2 0x1185 DUP2 DUP5 PUSH2 0x1132 JUMP JUMPDEST SWAP1 POP SWAP3 SWAP2 POP POP JUMP JUMPDEST PUSH1 0x0 PUSH1 0x40 DUP3 ADD SWAP1 POP DUP2 DUP2 SUB PUSH1 0x0 DUP4 ADD MSTORE PUSH2 0x11A7 DUP2 DUP6 PUSH2 0x1132 JUMP JUMPDEST SWAP1 POP PUSH2 0x11B6 PUSH1 0x20 DUP4 ADD DUP5 PUSH2 0x10B1 JUMP JUMPDEST SWAP4 SWAP3 POP POP POP JUMP JUMPDEST PUSH1 0x0 DUP2 MLOAD SWAP1 POP SWAP2 SWAP1 POP JUMP JUMPDEST PUSH1 0x0 DUP3 DUP3 MSTORE PUSH1 0x20 DUP3 ADD SWAP1 POP SWAP3 SWAP2 POP POP JUMP JUMPDEST PUSH1 0x0 DUP2 SWAP1 POP PUSH1 0x20 DUP3 ADD SWAP1 POP SWAP2 SWAP1 POP JUMP JUMPDEST PUSH1 0x0 DUP3 DUP3 MSTORE PUSH1 0x20 DUP3 ADD SWAP1 POP SWAP3 SWAP2 POP POP JUMP JUMPDEST PUSH1 0x0 PUSH2 0x1205 DUP3 PUSH2 0x10DB JUMP JUMPDEST PUSH2 0x120F DUP2 DUP6 PUSH2 0x11E9 JUMP JUMPDEST SWAP4 POP PUSH2 0x121F DUP2 DUP6 PUSH1 0x20 DUP7 ADD PUSH2 0x10F7 JUMP JUMPDEST PUSH2 0x1228 DUP2 PUSH2 0x1121 JUMP JUMPDEST DUP5 ADD SWAP2 POP POP SWAP3 SWAP2 POP POP JUMP JUMPDEST PUSH1 0x0 PUSH2 0x123F DUP4 DUP4 PUSH2 0x11FA JUMP JUMPDEST SWAP1 POP SWAP3 SWAP2 POP POP JUMP JUMPDEST PUSH1 0x0 PUSH1 0x20 DUP3 ADD SWAP1 POP SWAP2 SWAP1 POP JUMP JUMPDEST PUSH1 0x0 PUSH2 0x125F DUP3 PUSH2 0x11BD JUMP JUMPDEST PUSH2 0x1269 DUP2 DUP6 PUSH2 0x11C8 JUMP JUMPDEST SWAP4 POP DUP4 PUSH1 0x20 DUP3 MUL DUP6 ADD PUSH2 0x127B DUP6 PUSH2 0x11D9 JUMP JUMPDEST DUP1 PUSH1 0x0 JUMPDEST DUP6 DUP2 LT ISZERO PUSH2 0x12B7 JUMPI DUP5 DUP5 SUB DUP10 MSTORE DUP2 MLOAD PUSH2 0x1298 DUP6 DUP3 PUSH2 0x1233 JUMP JUMPDEST SWAP5 POP PUSH2 0x12A3 DUP4 PUSH2 0x1247 JUMP JUMPDEST SWAP3 POP PUSH1 0x20 DUP11 ADD SWAP10 POP POP PUSH1 0x1 DUP2 ADD SWAP1 POP PUSH2 0x127F JUMP JUMPDEST POP DUP3 SWAP8 POP DUP8 SWAP6 POP POP POP POP POP POP SWAP3 SWAP2 POP POP JUMP JUMPDEST PUSH1 0x0 DUP2 MLOAD SWAP1 POP SWAP2 SWAP1 POP JUMP JUMPDEST PUSH1 0x0 DUP3 DUP3 MSTORE PUSH1 0x20 DUP3 ADD SWAP1 POP SWAP3 SWAP2 POP POP JUMP JUMPDEST PUSH1 0x0 DUP2 SWAP1 POP PUSH1 0x20 DUP3 ADD SWAP1 POP SWAP2 SWAP1 POP JUMP JUMPDEST PUSH2 0x12FE DUP2 PUSH2 0xF8D JUMP JUMPDEST DUP3 MSTORE POP POP JUMP JUMPDEST PUSH1 0x0 PUSH2 0x1310 DUP4 DUP4 PUSH2 0x12F5 JUMP JUMPDEST PUSH1 0x20 DUP4 ADD SWAP1 POP SWAP3 SWAP2 POP POP JUMP JUMPDEST PUSH1 0x0 PUSH1 0x20 DUP3 ADD SWAP1 POP SWAP2 SWAP1 POP JUMP JUMPDEST PUSH1 0x0 PUSH2 0x1334 DUP3 PUSH2 0x12C9 JUMP JUMPDEST PUSH2 0x133E DUP2 DUP6 PUSH2 0x12D4 JUMP JUMPDEST SWAP4 POP PUSH2 0x1349 DUP4 PUSH2 0x12E5 JUMP JUMPDEST DUP1 PUSH1 0x0 JUMPDEST DUP4 DUP2 LT ISZERO PUSH2 0x137A JUMPI DUP2 MLOAD PUSH2 0x1361 DUP9 DUP3 PUSH2 0x1304 JUMP JUMPDEST SWAP8 POP PUSH2 0x136C DUP4 PUSH2 0x131C JUMP JUMPDEST SWAP3 POP POP PUSH1 0x1 DUP2 ADD SWAP1 POP PUSH2 0x134D JUMP JUMPDEST POP DUP6 SWAP4 POP POP POP POP SWAP3 SWAP2 POP POP JUMP JUMPDEST PUSH1 0x0 PUSH1 0x40 DUP3 ADD SWAP1 POP DUP2 DUP2 SUB PUSH1 0x0 DUP4 ADD MSTORE PUSH2 0x13A1 DUP2 DUP6 PUSH2 0x1254 JUMP JUMPDEST SWAP1 POP DUP2 DUP2 SUB PUSH1 0x20 DUP4 ADD MSTORE PUSH2 0x13B5 DUP2 DUP5 PUSH2 0x1329 JUMP JUMPDEST SWAP1 POP SWAP4 SWAP3 POP POP POP JUMP JUMPDEST PUSH1 0x0 DUP1 REVERT JUMPDEST PUSH1 0x0 DUP1 REVERT JUMPDEST PUSH32 0x4E487B7100000000000000000000000000000000000000000000000000000000 PUSH1 0x0 MSTORE PUSH1 0x41 PUSH1 0x4 MSTORE PUSH1 0x24 PUSH1 0x0 REVERT JUMPDEST PUSH2 0x1400 DUP3 PUSH2 0x1121 JUMP JUMPDEST DUP2 ADD DUP2 DUP2 LT PUSH8 0xFFFFFFFFFFFFFFFF DUP3 GT OR ISZERO PUSH2 0x141F JUMPI PUSH2 0x141E PUSH2 0x13C8 JUMP JUMPDEST JUMPDEST DUP1 PUSH1 0x40 MSTORE POP POP POP JUMP JUMPDEST PUSH1 0x0 PUSH2 0x1432 PUSH2 0xF79 JUMP JUMPDEST SWAP1 POP PUSH2 0x143E DUP3 DUP3 PUSH2 0x13F7 JUMP JUMPDEST SWAP2 SWAP1 POP JUMP JUMPDEST PUSH1 0x0 PUSH8 0xFFFFFFFFFFFFFFFF DUP3 GT ISZERO PUSH2 0x145E JUMPI PUSH2 0x145D PUSH2 0x13C8 JUMP JUMPDEST JUMPDEST PUSH2 0x1467 DUP3 PUSH2 0x1121 JUMP JUMPDEST SWAP1 POP PUSH1 0x20 DUP2 ADD SWAP1 POP SWAP2 SWAP1 POP JUMP JUMPDEST DUP3 DUP2 DUP4 CALLDATACOPY PUSH1 0x0 DUP4 DUP4 ADD MSTORE POP POP POP JUMP JUMPDEST PUSH1 0x0 PUSH2 0x1496 PUSH2 0x1491 DUP5 PUSH2 0x1443 JUMP JUMPDEST PUSH2 0x1428 JUMP JUMPDEST SWAP1 POP DUP3 DUP2 MSTORE PUSH1 0x20 DUP2 ADD DUP5 DUP5 DUP5 ADD GT ISZERO PUSH2 0x14B2 JUMPI PUSH2 0x14B1 PUSH2 0x13C3 JUMP JUMPDEST JUMPDEST PUSH2 0x14BD DUP5 DUP3 DUP6 PUSH2 0x1474 JUMP JUMPDEST POP SWAP4 SWAP3 POP POP POP JUMP JUMPDEST PUSH1 0x0 DUP3 PUSH1 0x1F DUP4 ADD SLT PUSH2 0x14DA JUMPI PUSH2 0x14D9 PUSH2 0x13BE JUMP JUMPDEST JUMPDEST DUP2 CALLDATALOAD PUSH2 0x14EA DUP5 DUP3 PUSH1 0x20 DUP7 ADD PUSH2 0x1483 JUMP JUMPDEST SWAP2 POP POP SWAP3 SWAP2 POP POP JUMP JUMPDEST PUSH1 0x0 PUSH8 0xFFFFFFFFFFFFFFFF DUP3 GT ISZERO PUSH2 0x150E JUMPI PUSH2 0x150D PUSH2 0x13C8 JUMP JUMPDEST JUMPDEST PUSH1 0x20 DUP3 MUL SWAP1 POP PUSH1 0x20 DUP2 ADD SWAP1 POP SWAP2 SWAP1 POP JUMP JUMPDEST PUSH1 0x0 DUP1 REVERT JUMPDEST PUSH1 0x0 PUSH2 0x1537 PUSH2 0x1532 DUP5 PUSH2 0x14F3 JUMP JUMPDEST PUSH2 0x1428 JUMP JUMPDEST SWAP1 POP DUP1 DUP4 DUP3 MSTORE PUSH1 0x20 DUP3 ADD SWAP1 POP PUSH1 0x20 DUP5 MUL DUP4 ADD DUP6 DUP2 GT ISZERO PUSH2 0x155A JUMPI PUSH2 0x1559 PUSH2 0x151F JUMP JUMPDEST JUMPDEST DUP4 JUMPDEST DUP2 DUP2 LT ISZERO PUSH2 0x15A1 JUMPI DUP1 CALLDATALOAD PUSH8 0xFFFFFFFFFFFFFFFF DUP2 GT ISZERO PUSH2 0x157F JUMPI PUSH2 0x157E PUSH2 0x13BE JUMP JUMPDEST JUMPDEST DUP1 DUP7 ADD PUSH2 0x158C DUP10 DUP3 PUSH2 0x14C5 JUMP JUMPDEST DUP6 MSTORE PUSH1 0x20 DUP6 ADD SWAP5 POP POP POP PUSH1 0x20 DUP2 ADD SWAP1 POP PUSH2 0x155C JUMP JUMPDEST POP POP POP SWAP4 SWAP3 POP POP POP JUMP JUMPDEST PUSH1 0x0 DUP3 PUSH1 0x1F DUP4 ADD SLT PUSH2 0x15C0 JUMPI PUSH2 0x15BF PUSH2 0x13BE JUMP JUMPDEST JUMPDEST DUP2 CALLDATALOAD PUSH2 0x15D0 DUP5 DUP3 PUSH1 0x20 DUP7 ADD PUSH2 0x1524 JUMP JUMPDEST SWAP2 POP POP SWAP3 SWAP2 POP POP JUMP JUMPDEST PUSH1 0x0 DUP1 PUSH1 0x0 PUSH1 0x60 DUP5 DUP7 SUB SLT ISZERO PUSH2 0x15F2 JUMPI PUSH2 0x15F1 PUSH2 0xF83 JUMP JUMPDEST JUMPDEST PUSH1 0x0 DUP5 ADD CALLDATALOAD PUSH8 0xFFFFFFFFFFFFFFFF DUP2 GT ISZERO PUSH2 0x1610 JUMPI PUSH2 0x160F PUSH2 0xF88 JUMP JUMPDEST JUMPDEST PUSH2 0x161C DUP7 DUP3 DUP8 ADD PUSH2 0x14C5 JUMP JUMPDEST SWAP4 POP POP PUSH1 0x20 DUP5 ADD CALLDATALOAD PUSH8 0xFFFFFFFFFFFFFFFF DUP2 GT ISZERO PUSH2 0x163D JUMPI PUSH2 0x163C PUSH2 0xF88 JUMP JUMPDEST JUMPDEST PUSH2 0x1649 DUP7 DUP3 DUP8 ADD PUSH2 0x15AB JUMP JUMPDEST SWAP3 POP POP PUSH1 0x40 PUSH2 0x165A DUP7 DUP3 DUP8 ADD PUSH2 0xFAE JUMP JUMPDEST SWAP2 POP POP SWAP3 POP SWAP3 POP SWAP3 JUMP JUMPDEST PUSH2 0x166D DUP2 PUSH2 0x1010 JUMP JUMPDEST DUP3 MSTORE POP POP JUMP JUMPDEST PUSH1 0x0 PUSH1 0x20 DUP3 ADD SWAP1 POP PUSH2 0x1688 PUSH1 0x0 DUP4 ADD DUP5 PUSH2 0x1664 JUMP JUMPDEST SWAP3 SWAP2 POP POP JUMP JUMPDEST PUSH32 0x54686520766F74696E672073657373696F6E206973206E6F7420616374697665 PUSH1 0x0 DUP3 ADD MSTORE PUSH32 0x2E00000000000000000000000000000000000000000000000000000000000000 PUSH1 0x20 DUP3 ADD MSTORE POP JUMP JUMPDEST PUSH1 0x0 PUSH2 0x16EA PUSH1 0x21 DUP4 PUSH2 0x10E6 JUMP JUMPDEST SWAP2 POP PUSH2 0x16F5 DUP3 PUSH2 0x168E JUMP JUMPDEST PUSH1 0x40 DUP3 ADD SWAP1 POP SWAP2 SWAP1 POP JUMP JUMPDEST PUSH1 0x0 PUSH1 0x20 DUP3 ADD SWAP1 POP DUP2 DUP2 SUB PUSH1 0x0 DUP4 ADD MSTORE PUSH2 0x1719 DUP2 PUSH2 0x16DD JUMP JUMPDEST SWAP1 POP SWAP2 SWAP1 POP JUMP JUMPDEST PUSH32 0x496E76616C6964206F7074696F6E2E0000000000000000000000000000000000 PUSH1 0x0 DUP3 ADD MSTORE POP JUMP JUMPDEST PUSH1 0x0 PUSH2 0x1756 PUSH1 0xF DUP4 PUSH2 0x10E6 JUMP JUMPDEST SWAP2 POP PUSH2 0x1761 DUP3 PUSH2 0x1720 JUMP JUMPDEST PUSH1 0x20 DUP3 ADD SWAP1 POP SWAP2 SWAP1 POP JUMP JUMPDEST PUSH1 0x0 PUSH1 0x20 DUP3 ADD SWAP1 POP DUP2 DUP2 SUB PUSH1 0x0 DUP4 ADD MSTORE PUSH2 0x1785 DUP2 PUSH2 0x1749 JUMP JUMPDEST SWAP1 POP SWAP2 SWAP1 POP JUMP JUMPDEST PUSH32 0x506C65617365207061792065786163746C7920302E3031206574686572730000 PUSH1 0x0 DUP3 ADD MSTORE POP JUMP JUMPDEST PUSH1 0x0 PUSH2 0x17C2 PUSH1 0x1E DUP4 PUSH2 0x10E6 JUMP JUMPDEST SWAP2 POP PUSH2 0x17CD DUP3 PUSH2 0x178C JUMP JUMPDEST PUSH1 0x20 DUP3 ADD SWAP1 POP SWAP2 SWAP1 POP JUMP JUMPDEST PUSH1 0x0 PUSH1 0x20 DUP3 ADD SWAP1 POP DUP2 DUP2 SUB PUSH1 0x0 DUP4 ADD MSTORE PUSH2 0x17F1 DUP2 PUSH2 0x17B5 JUMP JUMPDEST SWAP1 POP SWAP2 SWAP1 POP JUMP JUMPDEST PUSH32 0x54686520766F74696E672073657373696F6E2068617320656E6465642E000000 PUSH1 0x0 DUP3 ADD MSTORE POP JUMP JUMPDEST PUSH1 0x0 PUSH2 0x182E PUSH1 0x1D DUP4 PUSH2 0x10E6 JUMP JUMPDEST SWAP2 POP PUSH2 0x1839 DUP3 PUSH2 0x17F8 JUMP JUMPDEST PUSH1 0x20 DUP3 ADD SWAP1 POP SWAP2 SWAP1 POP JUMP JUMPDEST PUSH1 0x0 PUSH1 0x20 DUP3 ADD SWAP1 POP DUP2 DUP2 SUB PUSH1 0x0 DUP4 ADD MSTORE PUSH2 0x185D DUP2 PUSH2 0x1821 JUMP JUMPDEST SWAP1 POP SWAP2 SWAP1 POP JUMP JUMPDEST PUSH32 0x596F75206861766520616C726561647920766F7465642E000000000000000000 PUSH1 0x0 DUP3 ADD MSTORE POP JUMP JUMPDEST PUSH1 0x0 PUSH2 0x189A PUSH1 0x17 DUP4 PUSH2 0x10E6 JUMP JUMPDEST SWAP2 POP PUSH2 0x18A5 DUP3 PUSH2 0x1864 JUMP JUMPDEST PUSH1 0x20 DUP3 ADD SWAP1 POP SWAP2 SWAP1 POP JUMP JUMPDEST PUSH1 0x0 PUSH1 0x20 DUP3 ADD SWAP1 POP DUP2 DUP2 SUB PUSH1 0x0 DUP4 ADD MSTORE PUSH2 0x18C9 DUP2 PUSH2 0x188D JUMP JUMPDEST SWAP1 POP SWAP2 SWAP1 POP JUMP JUMPDEST PUSH32 0x4E487B7100000000000000000000000000000000000000000000000000000000 PUSH1 0x0 MSTORE PUSH1 0x32 PUSH1 0x4 MSTORE PUSH1 0x24 PUSH1 0x0 REVERT JUMPDEST PUSH32 0x4E487B7100000000000000000000000000000000000000000000000000000000 PUSH1 0x0 MSTORE PUSH1 0x11 PUSH1 0x4 MSTORE PUSH1 0x24 PUSH1 0x0 REVERT JUMPDEST PUSH1 0x0 PUSH2 0x1939 DUP3 PUSH2 0xF8D JUMP JUMPDEST SWAP2 POP PUSH2 0x1944 DUP4 PUSH2 0xF8D JUMP JUMPDEST SWAP3 POP DUP3 DUP3 ADD SWAP1 POP DUP1 DUP3 GT ISZERO PUSH2 0x195C JUMPI PUSH2 0x195B PUSH2 0x18FF JUMP JUMPDEST JUMPDEST SWAP3 SWAP2 POP POP JUMP JUMPDEST PUSH32 0x4F6E6C7920746865206F776E65722063616E2077697468647261772066756E64 PUSH1 0x0 DUP3 ADD MSTORE PUSH32 0x732E000000000000000000000000000000000000000000000000000000000000 PUSH1 0x20 DUP3 ADD MSTORE POP JUMP JUMPDEST PUSH1 0x0 PUSH2 0x19BE PUSH1 0x22 DUP4 PUSH2 0x10E6 JUMP JUMPDEST SWAP2 POP PUSH2 0x19C9 DUP3 PUSH2 0x1962 JUMP JUMPDEST PUSH1 0x40 DUP3 ADD SWAP1 POP SWAP2 SWAP1 POP JUMP JUMPDEST PUSH1 0x0 PUSH1 0x20 DUP3 ADD SWAP1 POP DUP2 DUP2 SUB PUSH1 0x0 DUP4 ADD MSTORE PUSH2 0x19ED DUP2 PUSH2 0x19B1 JUMP JUMPDEST SWAP1 POP SWAP2 SWAP1 POP JUMP JUMPDEST PUSH32 0x566F74696E67206D75737420626520656E646564206265666F72652077697468 PUSH1 0x0 DUP3 ADD MSTORE PUSH32 0x64726177696E672E000000000000000000000000000000000000000000000000 PUSH1 0x20 DUP3 ADD MSTORE POP JUMP JUMPDEST PUSH1 0x0 PUSH2 0x1A50 PUSH1 0x28 DUP4 PUSH2 0x10E6 JUMP JUMPDEST SWAP2 POP PUSH2 0x1A5B DUP3 PUSH2 0x19F4 JUMP JUMPDEST PUSH1 0x40 DUP3 ADD SWAP1 POP SWAP2 SWAP1 POP JUMP JUMPDEST PUSH1 0x0 PUSH1 0x20 DUP3 ADD SWAP1 POP DUP2 DUP2 SUB PUSH1 0x0 DUP4 ADD MSTORE PUSH2 0x1A7F DUP2 PUSH2 0x1A43 JUMP JUMPDEST SWAP1 POP SWAP2 SWAP1 POP JUMP JUMPDEST PUSH32 0x4E487B7100000000000000000000000000000000000000000000000000000000 PUSH1 0x0 MSTORE PUSH1 0x22 PUSH1 0x4 MSTORE PUSH1 0x24 PUSH1 0x0 REVERT JUMPDEST PUSH1 0x0 PUSH1 0x2 DUP3 DIV SWAP1 POP PUSH1 0x1 DUP3 AND DUP1 PUSH2 0x1ACD JUMPI PUSH1 0x7F DUP3 AND SWAP2 POP JUMPDEST PUSH1 0x20 DUP3 LT DUP2 SUB PUSH2 0x1AE0 JUMPI PUSH2 0x1ADF PUSH2 0x1A86 JUMP JUMPDEST JUMPDEST POP SWAP2 SWAP1 POP JUMP JUMPDEST PUSH32 0x4F6E6C7920746865206F776E65722063616E20737461727420766F74696E6720 PUSH1 0x0 DUP3 ADD MSTORE PUSH32 0x73657373696F6E2E000000000000000000000000000000000000000000000000 PUSH1 0x20 DUP3 ADD MSTORE POP JUMP JUMPDEST PUSH1 0x0 PUSH2 0x1B42 PUSH1 0x28 DUP4 PUSH2 0x10E6 JUMP JUMPDEST SWAP2 POP PUSH2 0x1B4D DUP3 PUSH2 0x1AE6 JUMP JUMPDEST PUSH1 0x40 DUP3 ADD SWAP1 POP SWAP2 SWAP1 POP JUMP JUMPDEST PUSH1 0x0 PUSH1 0x20 DUP3 ADD SWAP1 POP DUP2 DUP2 SUB PUSH1 0x0 DUP4 ADD MSTORE PUSH2 0x1B71 DUP2 PUSH2 0x1B35 JUMP JUMPDEST SWAP1 POP SWAP2 SWAP1 POP JUMP JUMPDEST PUSH32 0x5468652053657373696F6E206973207374696C6C206163746976650000000000 PUSH1 0x0 DUP3 ADD MSTORE POP JUMP JUMPDEST PUSH1 0x0 PUSH2 0x1BAE PUSH1 0x1B DUP4 PUSH2 0x10E6 JUMP JUMPDEST SWAP2 POP PUSH2 0x1BB9 DUP3 PUSH2 0x1B78 JUMP JUMPDEST PUSH1 0x20 DUP3 ADD SWAP1 POP SWAP2 SWAP1 POP JUMP JUMPDEST PUSH1 0x0 PUSH1 0x20 DUP3 ADD SWAP1 POP DUP2 DUP2 SUB PUSH1 0x0 DUP4 ADD MSTORE PUSH2 0x1BDD DUP2 PUSH2 0x1BA1 JUMP JUMPDEST SWAP1 POP SWAP2 SWAP1 POP JUMP JUMPDEST PUSH1 0x0 DUP2 SWAP1 POP DUP2 PUSH1 0x0 MSTORE PUSH1 0x20 PUSH1 0x0 KECCAK256 SWAP1 POP SWAP2 SWAP1 POP JUMP JUMPDEST PUSH1 0x0 PUSH1 0x20 PUSH1 0x1F DUP4 ADD DIV SWAP1 POP SWAP2 SWAP1 POP JUMP JUMPDEST PUSH1 0x0 DUP3 DUP3 SHL SWAP1 POP SWAP3 SWAP2 POP POP JUMP JUMPDEST PUSH1 0x0 PUSH1 0x8 DUP4 MUL PUSH2 0x1C46 PUSH32 0xFFFFFFFFFFFFFFFFFFFFFFFFFFFFFFFFFFFFFFFFFFFFFFFFFFFFFFFFFFFFFFFF DUP3 PUSH2 0x1C09 JUMP JUMPDEST PUSH2 0x1C50 DUP7 DUP4 PUSH2 0x1C09 JUMP JUMPDEST SWAP6 POP DUP1 NOT DUP5 AND SWAP4 POP DUP1 DUP7 AND DUP5 OR SWAP3 POP POP POP SWAP4 SWAP3 POP POP POP JUMP JUMPDEST PUSH1 0x0 DUP2 SWAP1 POP SWAP2 SWAP1 POP JUMP JUMPDEST PUSH1 0x0 PUSH2 0x1C8D PUSH2 0x1C88 PUSH2 0x1C83 DUP5 PUSH2 0xF8D JUMP JUMPDEST PUSH2 0x1C68 JUMP JUMPDEST PUSH2 0xF8D JUMP JUMPDEST SWAP1 POP SWAP2 SWAP1 POP JUMP JUMPDEST PUSH1 0x0 DUP2 SWAP1 POP SWAP2 SWAP1 POP JUMP JUMPDEST PUSH2 0x1CA7 DUP4 PUSH2 0x1C72 JUMP JUMPDEST PUSH2 0x1CBB PUSH2 0x1CB3 DUP3 PUSH2 0x1C94 JUMP JUMPDEST DUP5 DUP5 SLOAD PUSH2 0x1C16 JUMP JUMPDEST DUP3 SSTORE POP POP POP POP JUMP JUMPDEST PUSH1 0x0 SWAP1 JUMP JUMPDEST PUSH2 0x1CD0 PUSH2 0x1CC3 JUMP JUMPDEST PUSH2 0x1CDB DUP2 DUP5 DUP5 PUSH2 0x1C9E JUMP JUMPDEST POP POP POP JUMP JUMPDEST JUMPDEST DUP2 DUP2 LT ISZERO PUSH2 0x1CFF JUMPI PUSH2 0x1CF4 PUSH1 0x0 DUP3 PUSH2 0x1CC8 JUMP JUMPDEST PUSH1 0x1 DUP2 ADD SWAP1 POP PUSH2 0x1CE1 JUMP JUMPDEST POP POP JUMP JUMPDEST PUSH1 0x1F DUP3 GT ISZERO PUSH2 0x1D44 JUMPI PUSH2 0x1D15 DUP2 PUSH2 0x1BE4 JUMP JUMPDEST PUSH2 0x1D1E DUP5 PUSH2 0x1BF9 JUMP JUMPDEST DUP2 ADD PUSH1 0x20 DUP6 LT ISZERO PUSH2 0x1D2D JUMPI DUP2 SWAP1 POP JUMPDEST PUSH2 0x1D41 PUSH2 0x1D39 DUP6 PUSH2 0x1BF9 JUMP JUMPDEST DUP4 ADD DUP3 PUSH2 0x1CE0 JUMP JUMPDEST POP POP JUMPDEST POP POP POP JUMP JUMPDEST PUSH1 0x0 DUP3 DUP3 SHR SWAP1 POP SWAP3 SWAP2 POP POP JUMP JUMPDEST PUSH1 0x0 PUSH2 0x1D67 PUSH1 0x0 NOT DUP5 PUSH1 0x8 MUL PUSH2 0x1D49 JUMP JUMPDEST NOT DUP1 DUP4 AND SWAP2 POP POP SWAP3 SWAP2 POP POP JUMP JUMPDEST PUSH1 0x0 PUSH2 0x1D80 DUP4 DUP4 PUSH2 0x1D56 JUMP JUMPDEST SWAP2 POP DUP3 PUSH1 0x2 MUL DUP3 OR SWAP1 POP SWAP3 SWAP2 POP POP JUMP JUMPDEST PUSH2 0x1D99 DUP3 PUSH2 0x10DB JUMP JUMPDEST PUSH8 0xFFFFFFFFFFFFFFFF DUP2 GT ISZERO PUSH2 0x1DB2 JUMPI PUSH2 0x1DB1 PUSH2 0x13C8 JUMP JUMPDEST JUMPDEST PUSH2 0x1DBC DUP3 SLOAD PUSH2 0x1AB5 JUMP JUMPDEST PUSH2 0x1DC7 DUP3 DUP3 DUP6 PUSH2 0x1D03 JUMP JUMPDEST PUSH1 0x0 PUSH1 0x20 SWAP1 POP PUSH1 0x1F DUP4 GT PUSH1 0x1 DUP2 EQ PUSH2 0x1DFA JUMPI PUSH1 0x0 DUP5 ISZERO PUSH2 0x1DE8 JUMPI DUP3 DUP8 ADD MLOAD SWAP1 POP JUMPDEST PUSH2 0x1DF2 DUP6 DUP3 PUSH2 0x1D74 JUMP JUMPDEST DUP7 SSTORE POP PUSH2 0x1E5A JUMP JUMPDEST PUSH1 0x1F NOT DUP5 AND PUSH2 0x1E08 DUP7 PUSH2 0x1BE4 JUMP JUMPDEST PUSH1 0x0 JUMPDEST DUP3 DUP2 LT ISZERO PUSH2 0x1E30 JUMPI DUP5 DUP10 ADD MLOAD DUP3 SSTORE PUSH1 0x1 DUP3 ADD SWAP2 POP PUSH1 0x20 DUP6 ADD SWAP5 POP PUSH1 0x20 DUP2 ADD SWAP1 POP PUSH2 0x1E0B JUMP JUMPDEST DUP7 DUP4 LT ISZERO PUSH2 0x1E4D JUMPI DUP5 DUP10 ADD MLOAD PUSH2 0x1E49 PUSH1 0x1F DUP10 AND DUP3 PUSH2 0x1D56 JUMP JUMPDEST DUP4 SSTORE POP JUMPDEST PUSH1 0x1 PUSH1 0x2 DUP9 MUL ADD DUP9 SSTORE POP POP POP JUMPDEST POP POP POP POP POP POP JUMP JUMPDEST PUSH1 0x0 PUSH2 0x1E6D DUP3 PUSH2 0xF8D JUMP JUMPDEST SWAP2 POP PUSH2 0x1E78 DUP4 PUSH2 0xF8D JUMP JUMPDEST SWAP3 POP DUP3 DUP3 MUL PUSH2 0x1E86 DUP2 PUSH2 0xF8D JUMP JUMPDEST SWAP2 POP DUP3 DUP3 DIV DUP5 EQ DUP4 ISZERO OR PUSH2 0x1E9D JUMPI PUSH2 0x1E9C PUSH2 0x18FF JUMP JUMPDEST JUMPDEST POP SWAP3 SWAP2 POP POP JUMP JUMPDEST PUSH32 0x4F6E6C7920746865206F776E65722063616E20656E642074686520766F74696E PUSH1 0x0 DUP3 ADD MSTORE PUSH32 0x672E000000000000000000000000000000000000000000000000000000000000 PUSH1 0x20 DUP3 ADD MSTORE POP JUMP JUMPDEST PUSH1 0x0 PUSH2 0x1F00 PUSH1 0x22 DUP4 PUSH2 0x10E6 JUMP JUMPDEST SWAP2 POP PUSH2 0x1F0B DUP3 PUSH2 0x1EA4 JUMP JUMPDEST PUSH1 0x40 DUP3 ADD SWAP1 POP SWAP2 SWAP1 POP JUMP JUMPDEST PUSH1 0x0 PUSH1 0x20 DUP3 ADD SWAP1 POP DUP2 DUP2 SUB PUSH1 0x0 DUP4 ADD MSTORE PUSH2 0x1F2F DUP2 PUSH2 0x1EF3 JUMP JUMPDEST SWAP1 POP SWAP2 SWAP1 POP JUMP JUMPDEST PUSH32 0x4E6F2061637469766520766F74696E672073657373696F6E2E00000000000000 PUSH1 0x0 DUP3 ADD MSTORE POP JUMP JUMPDEST PUSH1 0x0 PUSH2 0x1F6C PUSH1 0x19 DUP4 PUSH2 0x10E6 JUMP JUMPDEST SWAP2 POP PUSH2 0x1F77 DUP3 PUSH2 0x1F36 JUMP JUMPDEST PUSH1 0x20 DUP3 ADD SWAP1 POP SWAP2 SWAP1 POP JUMP JUMPDEST PUSH1 0x0 PUSH1 0x20 DUP3 ADD SWAP1 POP DUP2 DUP2 SUB PUSH1 0x0 DUP4 ADD MSTORE PUSH2 0x1F9B DUP2 PUSH2 0x1F5F JUMP JUMPDEST SWAP1 POP SWAP2 SWAP1 POP JUMP JUMPDEST PUSH32 0x4F6E6C7920746865206F776E65722063616E206372656174652061206E657720 PUSH1 0x0 DUP3 ADD MSTORE PUSH32 0x766F74696E6720696E7374616E63652E00000000000000000000000000000000 PUSH1 0x20 DUP3 ADD MSTORE POP JUMP JUMPDEST PUSH1 0x0 PUSH2 0x1FFE PUSH1 0x30 DUP4 PUSH2 0x10E6 JUMP JUMPDEST SWAP2 POP PUSH2 0x2009 DUP3 PUSH2 0x1FA2 JUMP JUMPDEST PUSH1 0x40 DUP3 ADD SWAP1 POP SWAP2 SWAP1 POP JUMP JUMPDEST PUSH1 0x0 PUSH1 0x20 DUP3 ADD SWAP1 POP DUP2 DUP2 SUB PUSH1 0x0 DUP4 ADD MSTORE PUSH2 0x202D DUP2 PUSH2 0x1FF1 JUMP JUMPDEST SWAP1 POP SWAP2 SWAP1 POP JUMP INVALID LOG2 PUSH5 0x6970667358 0x22 SLT KECCAK256 0x4C PUSH22 0xC93E84D2E44B587373AAC0331580162C5783846C4CE 0xEB 0xF9 JUMPDEST PUSH24 0x80DE0C2B64736F6C634300081B0033000000000000000000 "
        },
        "methodIdentifiers": {
          "endVoting()": "c3403ddf",
          "getResults()": "4717f97c",
          "getVotingType()": "263b7ead",
          "hasVoted(address)": "09eef43e",
          "isVotingActive()": "47cf6f76",
          "newVote(string,string[],uint256)": "843b1c9a",
          "newVoting()": "d0fc1572",
          "options(uint256)": "409e2205",
          "owner()": "8da5cb5b",
          "question()": "3fad9ae0",
          "vote(uint256)": "0121b93f",
          "voters(uint256)": "da58c7d9",
          "votingEndTime()": "1ea736e0",
          "withdraw()": "3ccfd60b"
        }
      }
    }
  }
}